:100000000C940D300C943A300C943A300C943A30F5
:100010000C943A300C943A300C943A300C943A30B8
:100020000C943A300C943A300C943A300C943A30A8
:100030000C943A300D945B2E0C943A300C943A3078
:100040000C943A300C940D950C943A300C943A3050
:100050000C943A300C94A7930C9424940D94CC2ACD
:100060000C943A300C9484910C94AE910C943A30E8
:100070000C943A300C943A300C943A300C943A3058
:100080000C943A300C943A300C943A300C943A3048
:100090000C94DE910C9408920C943A300C943A3003
:1000A0000C943A300C943A300C943A300C943A3028
:1000B0000C943A300C943A300C943A300C943A3018
:1000C0000C943A300C943A300C943A300C943A3008
:1000D0000C943A300C943A300C943A300C943A30F8
:1000E0000C943A30288C428C428C428C428C428C4C
:1000F000428C428C428C428C428C428C428C428C90
:10010000428C428C428C428C428C428C428C428C7F
:10011000428CEA8BF58BD48BC98B738B7E8BE18AF7
:10012000DF8BA88BB38B008C0B8CF48ACD8A168C5A
:100130009D8B428CBE8B928B898B428C428C428CE5
:10014000528B5D8B688B428C428C428C428C428CF1
:10015000428CEA8BF58BD48BC98B738B7E8BE18AB7
:10016000DF8BA88BB38B008C0B8CF48ACD8A168C1A
:100170009D8B428CBE8B928B898B428C428C428CA5
:10018000528B5D8B688B084AD73B3BCE016E84BC9B
:10019000BFFDC12F3D6C74319ABD56833DDA3D00E1
:1001A000C77F11BED9E4BB4C3E916BAAAABE00002A
:1001B00000803F05A84CCDB2D44EB93836A9020C08
:1001C00050B9918688083CA6AAAA2ABE00000080E1
:1001D0003F2063203D20002062203D2000706C61A4
:1001E0006E653A2061203D20007A2D70726F626545
:1001F00020646964206E6F7420756E74726967671D
:10020000657220616674657220676F696E6720622F
:1002100061636B20746F20737461727420706F73EC
:100220006974696F6E2E00207A436F72723A007A99
:100230002D70726F626520646964206E6F74207522
:100240006E74726967676572206F6E207265706583
:10025000746974697665206D6561737572656D6525
:100260006E74202D206D6179626520796F75206E26
:1002700065656420746F20696E63726561736520C3
:1002800064697374616E636521007A2D70726F62A8
:100290006520747269676765726564206265666F60
:1002A0007265207374617274696E672070726F6218
:1002B000696E672E00000136372603023C3D380E7A
:1002C0000F2E303E12130D0C0A081A1C180D0E3595
:1002D00054657374696E6720666174616C20657221
:1002E000726F7200536574204D6963726F73746529
:1002F0007070696E670054726967676572696E67CE
:10030000207761746368646F672E2049662061639B
:10031000746976617465642C2074686520707269F4
:100320006E7465722077696C6C2072657365742ECB
:10033000005761746368646F672064697361626CFD
:1003400065640020746F200053657420766F6C75AF
:100350006D657472696320657874727573696F6E08
:1003600020666F722065787472756465722000442F
:10037000697361626C656420766F6C756D6574720B
:10038000696320657874727573696F6E20666F7229
:1003900020657874727564657220004D31313420A7
:1003A0000050696E2063616E206E6F74206265205C
:1003B000736574206279204D34322C206973206972
:1003C0006E2073656E7369746976652070696E73EB
:1003D000212000496C6C6567616C20532076616C4C
:1003E000756520666F72204D3432004175746F72EE
:1003F0006574726163743A00436F6C64206578744D
:10040000727573696F6E20646973616C6C6F776568
:100410006400436F6C6420657874727573696F6EE5
:1004200020616C6C6F776564004A616D2064656261
:10043000756767696E673A004A616D20636F6E7415
:10044000726F6C2064697361626C65643A00526516
:100450006C617469766520706F736974696F6E6919
:100460006E67004162736F6C75746520706F73699D
:1004700074696F6E696E6700473333206661696C1B
:1004800065642100596F75206E65656420746F2066
:10049000646566696E6520582C205920616E642061
:1004A0005A20746F20736574206120706F696E74B8
:1004B0002100473239206C6576656C696E6720666D
:1004C00061696C65642100473239206C6576656C22
:1004D000696E67206661696C656421004732392066
:1004E0000041646A7573746564207A206F7269676D
:1004F000696E004649524D574152455F4E414D4548
:100500003A52657065746965725F302E39322E39E2
:10051000204649524D574152455F55524C3A6874F6
:100520007470733A2F2F6769746875622E636F6DEC
:100530002F72657065746965722F52657065746994
:1005400065722D4669726D776172652F2050524F2A
:10055000544F434F4C5F56455253494F4E3A312EFC
:1005600030204D414348494E455F545950453A4D1E
:10057000656E64656C2045585452554445525F433E
:100580004F554E543A312052455045544945525FDB
:1005900050524F544F434F4C3A3300446562756795
:1005A0003A006F6B000D0A004E414E00494E460066
:1005B0004572726F723A00496E666F3A0057617207
:1005C0006E696E673A00526573656E643A00456302
:1005D000686F3A006F6B200057726F6E6720636818
:1005E00065636B73756D004D697373696E67206326
:1005F0006865636B73756D00466F726D617420651D
:1006000072726F7200446F6E65207072696E7469E9
:100610006E672066696C6500205800205900205ADA
:1006200000204500204600205300205000204900B3
:10063000204A002052005344207265616420657294
:10064000726F72004572726F723A6578706563748A
:100650006564206C696E65200020676F74200073EC
:100660006B69702000424C4B2000737461727400FF
:10067000506F77657255700045787465726E616C65
:100680002052657365740042726F776E206F7574C7
:10069000205265736574005761746368646F6720E6
:1006A000526573657400536F66747761726520528A
:1006B0006573657400556E6B6E6F776E20636F6D3A
:1006C0006D616E643A00467265652052414D3A0094
:1006D000583A0020583A0020593A00205A3A00204F
:1006E000453A00543A0020423A0020403A00205453
:1006F000002040002042403A0020524157003A007A
:100700002F00202F00666174616C3A00537065659C
:10071000644D756C7469706C793A00466C6F774DF6
:10072000756C7469706C793A0046616E73706565BA
:10073000643A0046616E7370656564323A005072C7
:10074000696E7465642066696C616D656E743A00EB
:100750005072696E74696E672074696D653A006DD8
:1007600020002064617973200020686F7572732007
:1007700000206D696E00496E76616C69642061725B
:1007800063002C002000593A005A3A0045303A00E4
:1007900045313A004D53312C4D53322050696E7320
:1007A00000536574206F75747075743A2000476546
:1007B0007420496E7075743A200020746F200020F8
:1007C000697320004820004C2000785F6D696E3A04
:1007D00000785F6D61783A00795F6D696E3A0079F3
:1007E0005F6D61783A007A5F6D696E3A007A5F6D8D
:1007F00061783A007A325F6D696E6D61783A004ACD
:1008000065726B3A00205A4A65726B3A00206C6937
:100810006E6561722073746570733A002071756142
:100820006472617469632073746570733A002C207C
:1008300073706565643D00454550524F4D2075709D
:100840006461746564006C696E656172204C3A0085
:1008500020717561647261746963204B3A00466966
:100860006C616D656E7420736C697070696E670081
:100870002F2F20616374696F6E3A70617573650024
:100880002F2F20616374696F6E3A726573756D65A1
:1008900000546172676574457874720054617267C0
:1008A00065744265643A00504944204175746F7420
:1008B000756E652073746172740020626961733AA9
:1008C000200020643A2000206D696E3A2000206DDF
:1008D00061783A2000204B753A20002054753A2068
:1008E0000020436C61737369632050494400204BBE
:1008F000703A2000204B693A2000204B643A2000D7
:10090000504944204175746F74756E652066616945
:100910006C6564212054656D7065726174757265D3
:1009200020746F6F206869676800504944204175E2
:10093000746F74756E65206661696C6564212074DE
:10094000696D656F757400504944204175746F740A
:10095000756E652066696E69736865642021205034
:100960006C61636520746865204B702C204B692096
:10097000616E64204B6420636F6E7374616E747378
:1009800020696E2074686520436F6E6669677572B2
:100990006174696F6E2E68206F7220454550524F0A
:1009A0004D004D54454D503A0068656174656420B2
:1009B00062656400657874727564657220003A201F
:1009C00074656D702073656E736F72206465666503
:1009D0006374003A20776F726B696E6700507269BA
:1009E0006E7465722073657420696E746F20647212
:1009F000792072756E206D6F646520756E74696CF8
:100A0000207265737461727421005A2D70726F6266
:100A1000653A005A2D70726F626520617665726169
:100A20006765206865696768743A00526573657424
:100A3000205A20686569676874005A2D70726F6269
:100A4000652073746174653A000000486974207A07
:100A50002D70726F6265004175746F6C6576656CA0
:100A6000206D6174726978207265736574004175D8
:100A7000746F6C6576656C696E6720656E61626C1B
:100A80006564004175746F6C6576656C696E67208E
:100A900064697361626C6564005472616E73666F41
:100AA000726D6174696F6E206D61747269783A005D
:100AB0005A2D70726F6265206661696C6564005AB8
:100AC0002D70726F6265206D61783A005072696EA8
:100AD000746572206865696768743A007761697443
:100AE00000436F6174696E6720746869636B6E653B
:100AF0007373205B6D6D5D005A2D70726F6265209F
:100B0000686569676874205B6D6D5D004D61782E66
:100B1000207A2D70726F6265202D206265642064DA
:100B20006973742E205B6D6D5D005A2D70726F625B
:100B300065206F66667365742078205B6D6D5D005F
:100B40005A2D70726F6265206F66667365742079C6
:100B5000205B6D6D5D005A2D70726F626520737041
:100B6000656564205B6D6D2F735D005A2D70726F2B
:100B7000626520782D792D7370656564205B6D6DDD
:100B80002F735D005A2D70726F6265205831205BA3
:100B90006D6D5D005A2D70726F6265205931205B5A
:100BA0006D6D5D005A2D70726F6265205832205B4A
:100BB0006D6D5D005A2D70726F6265205932205B39
:100BC0006D6D5D005A2D70726F6265205833205B29
:100BD0006D6D5D005A2D70726F6265205933205B18
:100BE0006D6D5D005A2D70726F62652062656E6476
:100BF000696E6720636F7272656374696F6E2041FE
:100C0000205B6D6D5D005A2D70726F6265206265AC
:100C10006E64696E6720636F7272656374696F6E6C
:100C20002042205B6D6D5D005A2D70726F626520F1
:100C300062656E64696E6720636F72726563746962
:100C40006F6E2043205B6D6D5D00436F6E6669675C
:100C500075726174696F6E2073746F72656420744D
:100C60006F20454550524F4D2E00436F6E666967A9
:100C700075726174696F6E206C6F61646564206663
:100C8000726F6D20454550524F4D2E00436F6E667A
:100C9000696775726174696F6E207265736574201F
:100CA000746F2064656661756C74732E0050726F8A
:100CB000746F636F6C2076657273696F6E20636802
:100CC000616E6765642C20757067726164696E6718
:100CD000004550523A3020004550523A31200045EC
:100CE00050523A3220004550523A3320004261754A
:100CF0006472617465004C616E677561676500467A
:100D0000696C616D656E74207072696E74656420C3
:100D10005B6D5D005072696E746572206163746909
:100D20007665205B735D004D61782E20696E61638E
:100D3000746976652074696D65205B6D732C303D38
:100D40006F66665D0053746F7020737465707065B4
:100D50007220616674657220696E61637469766978
:100D60007479205B6D732C303D6F66665D00582092
:100D70006D696E20706F73205B6D6D5D0059206D25
:100D8000696E20706F73205B6D6D5D005A206D6918
:100D90006E20706F73205B6D6D5D0058206D617803
:100DA000206C656E677468205B6D6D5D0059206D09
:100DB0006178206C656E677468205B6D6D5D005AAC
:100DC000206D6178206C656E677468205B6D6D5D69
:100DD0000058206261636B6C617368205B6D6D5DB0
:100DE0000059206261636B6C617368205B6D6D5D9F
:100DF000005A206261636B6C617368205B6D6D5D8E
:100E0000004D61782E206A65726B205B6D6D2F73CB
:100E10005D00416363656C65726174696F6E206625
:100E20006163746F7220617420746F70205B252C75
:100E30003130303D6C696B6520626F74746F6D5D2D
:100E4000004D61782E205A2D6A65726B205B6D6DA6
:100E50002F735D00582D617869732073746570730A
:100E600020706572206D6D00592D61786973207353
:100E70007465707320706572206D6D005A2D6178F5
:100E8000697320737465707320706572206D6D00D6
:100E9000582D61786973206D61782E2066656564D0
:100EA00072617465205B6D6D2F735D00592D6178E3
:100EB0006973206D61782E20666565647261746562
:100EC000205B6D6D2F735D005A2D61786973206D05
:100ED00061782E206665656472617465205B6D6D56
:100EE0002F735D00582D6178697320686F6D696E8E
:100EF00067206665656472617465205B6D6D2F7334
:100F00005D00592D6178697320686F6D696E672087
:100F10006665656472617465205B6D6D2F735D003D
:100F20005A2D6178697320686F6D696E67206665F8
:100F3000656472617465205B6D6D2F735D00582D63
:100F40006178697320616363656C65726174696F50
:100F50006E205B6D6D2F735E325D00592D61786977
:100F60007320616363656C65726174696F6E205B89
:100F70006D6D2F735E325D005A2D6178697320614B
:100F80006363656C65726174696F6E205B6D6D2F54
:100F9000735E325D00582D617869732074726176DA
:100FA000656C20616363656C65726174696F6E2046
:100FB0005B6D6D2F735E325D00592D617869732012
:100FC00074726176656C20616363656C65726174CF
:100FD000696F6E205B6D6D2F735E325D005A2D61FF
:100FE0007869732074726176656C20616363656CE7
:100FF00065726174696F6E205B6D6D2F735E325D1B
:10100000004F5053206F7065726174696F6E206D70
:101010006F6465205B303D4F66662C313D436C61EB
:10102000737369632C323D466173745D004F505396
:10103000206D6F7665206166746572207825207258
:10104000657472616374205B255D004F5053206DA1
:10105000696E2E2064697374616E636520666F72B9
:101060002066696C2E2072657472616374696F6E9C
:10107000205B6D6D5D004F5053207265747261632B
:1010800074696F6E206C656E677468205B6D6D5D52
:10109000004F50532072657472616374696F6E20E3
:1010A0006261636B6C617368205B6D6D5D004265AE
:1010B000642048656174204D616E61676572205BD4
:1010C000302D335D004265642050494420647269CC
:1010D0007665206D61780042656420504944206443
:1010E00072697665206D696E0042656420504944DE
:1010F00020502D6761696E0042656420504944208C
:10110000492D6761696E004265642050494420445E
:101110002D6761696E0042656420504944206D610D
:10112000782076616C7565205B302D3235355D0039
:10113000737465707320706572206D6D006D6178D9
:101140002E206665656472617465205B6D6D2F731A
:101150005D007374617274206665656472617465A4
:10116000205B6D6D2F735D00616363656C657261FB
:1011700074696F6E205B6D6D2F735E325D00686504
:101180006174206D616E61676572205B302D335D27
:1011900000504944206472697665206D6178005082
:1011A0004944206472697665206D696E0050494437
:1011B00020502D6761696E2F646561642D74696DBF
:1011C000650048656174657220646561642D7469A9
:1011D0006D65006E6120666F7220646561642074C5
:1011E000696D65206374726C0050494420492D6715
:1011F00061696E0050494420442D6761696E00505A
:101200004944206D61782076616C7565205B302DD6
:101210003235355D00582D6F6666736574205B73DB
:10122000746570735D00592D6F6666736574205B1D
:1012300073746570735D005A2D6F666673657420F4
:101240005B73746570735D0074656D702E207374CC
:101250006162696C697A652074696D65205B735D94
:101260000074656D702E20666F72207265747261F5
:101270006374696F6E207768656E20686561746954
:101280006E67205B435D0064697374616E63652003
:10129000746F2072657472616374207768656E2064
:1012A00068656174696E67205B6D6D5D006578745B
:1012B000727564657220636F6F6C65722073706500
:1012C0006564205B302D3235355D00616476616E7A
:1012D0006365204B205B303D6F66665D0061647620
:1012E000616E6365204C205B303D6F66665D005328
:1012F0004420696E6974206661696C006572726F62
:10130000722077726974696E6720746F2066696CE9
:101310006500426567696E2066696C65206C69735B
:101320007400456E642066696C65206C6973740096
:1013300046696C65206F70656E65643A002053697C
:101340007A653A0046696C652073656C65637465FF
:10135000640066696C652E6F70656E206661696CED
:101360006564005344207072696E74696E67206210
:1013700079746520004E6F74205344207072696E3A
:1013800074696E67006F70656E206661696C656474
:101390002C2046696C653A200057726974696E6743
:1013A00020746F2066696C653A2000446F6E65207A
:1013B000736176696E672066696C652E0046696C9C
:1013C000652064656C657465640044656C6574696A
:1013D0006F6E206661696C65640044697265637450
:1013E0006F72792063726561746564004372656130
:1013F00074696F6E206661696C6564005344206592
:1014000072726F72436F64653A0048656174657209
:10141000206465636F75706C6564004F6E6520684D
:101420006561746572207365656D73206465636FB3
:1014300075706C65642066726F6D20746865726D7E
:101440006973746F72202D2064697361626C696EB8
:101450006720616C6C20666F7220736166657479B9
:1014600021005A20636F7272656374696F6E206524
:101470006E61626C6564005A20636F72726563749A
:10148000696F6E2064697361626C656400456E61AA
:10149000626C652072657472616374696F6E20633B
:1014A0006F6E76657273696F6E205B302F315D00F1
:1014B00052657472616374696F6E206C656E6774D7
:1014C00068205B6D6D5D0052657472616374696F55
:1014D0006E206C656E6774682065787472756465DB
:1014E0007220737769746368205B6D6D5D0052656F
:1014F0007472616374696F6E207370656564205BDC
:101500006D6D2F735D0052657472616374696F6EE7
:10151000207A2D6C696674205B6D6D5D0045787472
:10152000726120657874727573696F6E206F6E20BA
:10153000756E646F2072657472616374205B6D6D8B
:101540005D00457874726120657874727573696F97
:101550006E206F6E20756E646F2073776974636898
:101560002072657472616374205B6D6D5D005265FD
:101570007472616374696F6E20756E646F2073702E
:1015800065656400436F6E6669673A0045787472FA
:101590002E005072696E7465724D6F64653A4646EE
:1015A00046005072696E7465724D6F64653A4C61A5
:1015B000736572005072696E7465724D6F64653A3E
:1015C000434E43000D0E206D61726B6564206465AF
:1015D000636F75706C656400206D61726B6564206B
:1015E000646566656374004F746865723A001C1523
:1015F0001C141C00002243141F1F132EF81668171A
:10160000BC172C187C1800000000EC187419801A04
:10161000D01A4C1BC81B141C53656C656374457849
:101620007472756465723A0044697361626C696EC4
:101630006720616C6C2068656174657273206475E5
:101640006520746F206465746563746564207365D8
:101650006E736F72206465666563742E0020646526
:10166000672E204300206D656173757265642000EC
:101670004572726F723A436F756C64206E6F74209E
:10168000686F6C642074656D7065726174757265E5
:101690002000206D73002061667465722000457221
:1016A000726F723A54656D702E2072616973656451
:1016B00020746F20736C6F772E2052697365203D04
:1016C0002000486561746564206265642065786304
:1016D0006565646564206D61782074656D70657200
:1016E000617475726521004D31313720457874720F
:1016F00075646572203100000000A00F5C00600975
:10170000690010097900C0088C007008A200200848
:10171000BD00D007DE008007050130073401E00678
:101720006D019006B20140060702F0056D02A005AA
:10173000E80250057B0300052B04B004F8046004A4
:10174000EB06C003350920037F0B8002650DE00125
:10175000B00E40011D0FF000480FC8006C0FA00034
:10176000ED0F60FFFE0F48FE0400801AD8009808B5
:10177000AC012007800250065403C8052804580510
:10178000FC040005D005B004A4066804780728040A
:101790004C08E8032009B003F4097003C80A3803B1
:1017A0009C0BF802700CB002440D6802180E08027F
:1017B000EC0E8801C00F8800F00F00000400001B31
:1017C00054006009640010097400C00884007008A7
:1017D0009C002008B800D007D8008007000130071F
:1017E0002C01E00668019006AC0140060002F005FD
:1017F0006802A005E0025005740300052404B0044B
:10180000F0046004DC051004E406C003040870035F
:1018100030092003780B8002600DE001A80E400122
:10182000680FA000C00F0000E80F60FF0400700DFB
:10183000D8004804AC0158038002D8025403800247
:1018400028043802FC040002D005C801A40698014F
:10185000780770014C08480120091801F409F000CC
:10186000C80AC8009C0BA000700C7000440D380022
:10187000180E0000EC0EA8FFC00FE8FE0400001BCD
:1018800054006009640010097400C00884007008E6
:101890009C002008B800D007D8008007000130075E
:1018A0002C01E00668019006AC0140060002F0053C
:1018B0006802A005E0025005740300052404B0048A
:1018C000F0046004DC051004E406C003040870039F
:1018D00030092003780B8002600DE001A80E400162
:1018E000680FA000C00F0000E80F60FF0000401F5D
:1018F000450060094F0010095C00C0086B007008CB
:101900007D0020089200D007AC008007CC00300793
:10191000DE00E006230190065E014006A601F00508
:10192000FF01A0056D025005F30200059603B00407
:101930005A046004400510044806C0036E07700393
:10194000A8082003EB09D002230B8002410C3002CF
:10195000390DE001040E9001A20E4001170FF000B6
:10196000690FA000A20F5000C60F0000DD0FB0FFEE
:10197000EB0F60FF0400681D4C00500B94005809E9
:10198000DC0050082401A8076C012807B401C00638
:10199000FC017006440228068C02F005D402B8054A
:1019A0001C03880564035805AC033005F4031005D7
:1019B0003C04E8048404C804CC04A804140590047E
:1019C0005C057004A4055804EC05380434062004B2
:1019D0007C060804C406F0030C07D8035407C803A8
:1019E0009C07B003E40798032C0880037408700375
:1019F000BC085803040948034C0930039409180330
:101A0000DC090803240AF0026C0AE002B40AC802E6
:101A1000FC0AB002440BA0028C0B8802D40B7002AB
:101A20001C0C5802640C4002AC0C2802F40C10028E
:101A30003C0DF001840DD801CC0DB801140E9801B5
:101A40005C0E7001A40E4801EC0E1801340FD80092
:101A50007C0F8800C40F0800FC0F0000000000008D
:101A60000000000000000000000000000000000076
:101A70000000000000000000000000000000000066
:101A800004000016D800C006AC0178058002C0042E
:101A9000540348042804E803FC049803D0055003C9
:101AA000A40618037807D8024C08A802200970027F
:101AB000F4093802C80A08029C0BD001700C90018E
:101AC000440D5001180EF800EC0E8800C00F000005
:101AD0000400401D900060091C01B007A801D00659
:101AE00034023806C002C8054C036805D80318053F
:101AF0006404D804F00498047C05600408063004EB
:101B0000940600042007D003AC07A803380880031C
:101B1000C408580350093003DC090803680AE002CE
:101B2000F40AB802800B88020C0C6002980C300298
:101B3000240DF801B00DC0013C0E8001C80E30012B
:101B4000540FB800B40F2800E00F00000400081D77
:101B5000900058091C01B007A801C80634023006DD
:101B6000C002C0054C036805D80318056404D004FE
:101B7000F00498047C056004080630049406000410
:101B80002007D003AC07A80338088003C408580313
:101B900050093003DC090803680AD802F40AB002CD
:101BA000800B88020C0C6002980C3002240DF801A6
:101BB000B00DC0013C0E8001C80E3001540FB800BA
:101BC000B40F2800E00F0000000000008C030800A4
:101BD000AE035000D603A000F703F0001804400144
:101BE000380490015904E0017A0430029A0480021A
:101BF000BB04D002FC0470032605C0038606300730
:101C00009709A00F750D201C520E401F1F0F602258
:101C1000FF0F803E0400501D7C00D009A400100975
:101C2000CC008008F40010081C01B80744016807C4
:101C30006C0128079401E806BC01B806E401880697
:101C40000C026006340238065C0218068402F005B5
:101C5000AC02D805D402B805FC029805240380051F
:101C600074035005C4032805140400056404D80453
:101C7000B404B0042C058004A40558041C062804F0
:101C8000940600040C07D803AC07A8034C0878039B
:101C9000EC0848038C092003A40AD0021C0BA802FC
:101CA000AC0C2802FC0C0802C40DB801140E9801FB
:101CB000B40E38012C0FE000540FB8007C0F8800E0
:101CC000A40F4800F40F28FFFC0FC0F9696E666F7F
:101CD0003A436F6E74696E75652066726F6D20662B
:101CE0006174616C207374617465000020507269C6
:101CF0006E7465722073746F7070656420616E64B9
:101D000020686561746572732064697361626C65D3
:101D1000642064756520746F20746869732065722F
:101D2000726F722E20466978206572726F72206120
:101D30006E642072657374617274207769746820B0
:101D40004D3939392E005344206572726F72206606
:101D500069786564005344206572726F722064690B
:101D600064206E6F74207265636F76657221005314
:101D7000442052656164204572726F720042696E40
:101D80006172793A00436F6D6D616E64427566668B
:101D9000657200627573793A70726F636573736907
:101DA0006E6700627573793A68656174696E670081
:101DB000627573793A70617573656420666F72201D
:101DC0007573657220696E746572616374696F6E94
:101DD0000000000000000000000000000000000003
:101DE0000024F403D950C38EB1C2A23D96828B3534
:101DF00082127AE372816CCB66A861015DC758EBF1
:101E0000546151204E1E4B5648C14559431A410159
:101E10003F093D2F3B7139CD374036C93465331406
:101E200032D430A32F802E6B2D632C672B752A8E16
:101E300029B028DC2710274B268F25D9242B248274
:101E400023E0224322AC211A218D200420801F0090
:101E50001F841E0C1E971D261DB81C4E1CE61B82DF
:101E60001B201BC11A641A0A1AB2195D190A19B982
:101E7000186A181C18D11788174017FA16B5167368
:101E8000163116F115B31576153A150015C7148FCE
:101E90001458142214EE13BA13881356132513F68C
:101EA00012C71299126C1240121512EB11C111983F
:101EB00011701148112111FB10D610B1108D10694D
:101EC00010461024100210E10FC00FA00F800F6108
:101ED0000F420F230F060FE80ECB0EAF0E930E77B7
:101EE0000E5C0E410E270E0D0EF30DDA0DC10DA87E
:101EF0000D900D780D600D490D320D1B0D050DEF88
:101F00000CD90CC30CAE0C990C850C700C5C0C48F5
:101F10000C350C210C0E0CFB0BE80BD60BC40BB2D2
:101F20000BA00B8E0B7D0B6B0B5A0B4A0B390B293D
:101F30000B180B080BF80AE90AD90ACA0ABB0AAC43
:101F40000A9D0A8E0A800A710A630A550A470A39ED
:101F50000A2C0A1E0A110A040AF709EA09DD09D047
:101F600009C409B709AB099F09920987097B096F61
:101F700009630958094C09410936092B092009153B
:101F8000090A090009F508EB08E008D608CC08C2E0
:101F900008B808AE08A4089A08900887087D087455
:101FA000086B08610858084F0846083D0834082C9B
:101FB0000823081A08120809080108F807F007E8BA
:101FC00007E007D807D007C807C007B807B007A8B9
:101FD00007A1070000420FA1071605D0030D038BD0
:101FE000022E02E801B2018601630145012C0117AE
:101FF000010401F400205A002059004733332058CF
:1020000000002C2000446973746F7274696F6E2035
:10201000636F7272656374696F6E206D617472694B
:10202000783A0053746F7070696E672064697374D6
:102030006F7274696F6E206D6561737572656D6521
:102040006E742064756520746F206572726F727390
:102050002E00526573657474696E67205A20636F31
:102060007272656374696F6E007A446973746F721B
:1020700074696F6E436F7272656374696F6E3A0054
:102080004D617854656D703A004469616D657465A1
:10209000723A00416363656C65726174696F6E3A90
:1020A000004D617853706565643A004A65726B3A19
:1020B000004D617842656454656D703A00507269F4
:1020C0006E746572547970653A43617274657369B0
:1020D000616E005A54726176656C416363656C3A57
:1020E000005954726176656C416363656C3A0058BF
:1020F00054726176656C416363656C3A005A507244
:10210000696E74416363656C3A00595072696E740C
:10211000416363656C3A00585072696E7441636341
:10212000656C3A005A53697A653A005953697A6581
:102130003A005853697A653A005A4D61783A005925
:102140004D61783A00584D61783A005A4D696E3ABF
:1021500000594D696E3A00584D696E3A00526574E7
:1021600072616374696F6E556E646F5370656564F8
:102170003A0052657472616374696F6E556E646F74
:1021800045787472614C6F6E674C656E6774683A1F
:102190000052657472616374696F6E556E646F4549
:1021A000787472614C656E6774683A005265747237
:1021B000616374696F6E5A4C6966743A0052657453
:1021C00072616374696F6E53706565643A0052653D
:1021D0007472616374696F6E4C6F6E674C656E6785
:1021E00074683A0052657472616374696F6E4C650D
:1021F0006E6774683A004A65726B5A3A004B6565BF
:1022000070416C697665496E74657276616C3A00EE
:102210004A65726B58593A005072696E746C696EF7
:102220006543616368653A00454550524F4D3A0039
:102230004175746F6C6576656C3A005A50726F62C6
:10224000653A00436173654C69676874733A00537B
:102250007570706F72744C6F63616C46696C616D00
:10226000656E746368616E67653A00537570706F70
:1022700072744731304731313A005A486F6D6544C6
:1022800069723A0059486F6D654469723A0058485E
:102290006F6D654469723A00536F66747761726559
:1022A000506F7765725377697463683A004C4344A2
:1022B0003A0046616E323A300046616E3A0053444D
:1022C000436172643A004865617465644265643ACA
:1022D000004D6978696E6745787472756465723A05
:1022E000004E756D45787472756465723A00496E7A
:1022F0007075744275666665723A00426175647203
:102300006174653A004E6F2063617365206C696784
:1023100068747300686F6D654178697320004E655D
:10232000656473206C616E67756167652073656CA9
:10233000656374696F6E0044656275674C657665A8
:102340006C3A00656E6473746F7073206869743AD8
:102350002000005344207072696E742073746F7093
:1023600070656420627920757365722E00000053D9
:1023700044206361726420696E73657274656400E1
:10238000534420636172642072656D6F76656400EA
:1023900000002110422063308440A550C660E770E1
:1023A000088129914AA16BB18CC1ADD1CEE1EFF189
:1023B0003112100273325222B5529442F772D66231
:1023C000399318837BB35AA3BDD39CC3FFF3DEE3D9
:1023D0006224433420040114E664C774A444855481
:1023E0006AA54BB528850995EEE5CFF5ACC58DD529
:1023F0005336722611163006D776F6669556B446D1
:102400005BB77AA719973887DFF7FEE79DD7BCC778
:10241000C448E5588668A778400861180228233820
:10242000CCC9EDD98EE9AFF9488969990AA92BB9C8
:10243000F55AD44AB77A966A711A500A333A122A70
:10244000FDDBDCCBBFFB9EEB799B588B3BBB1AAB18
:10245000A66C877CE44CC55C222C033C600C411CC0
:10246000AEED8FFDECCDCDDD2AAD0BBD688D499D68
:10247000977EB66ED55EF44E133E322E511E700E10
:102480009FFFBEEFDDDFFCCF1BBF3AAF599F788FB8
:102490008891A981CAB1EBA10CD12DC14EF16FE198
:1024A0008010A100C230E3200450254046706760D0
:1024B000B9839893FBA3DAB33DC31CD37FE35EF3E8
:1024C000B1029012F322D232354214527762567220
:1024D000EAB5CBA5A89589856EF54FE52CD50DC538
:1024E000E234C324A0148104667447642454054470
:1024F000DBA7FAB79987B8975FE77EF71DC73CD788
:10250000D326F2369106B0165766767615463456BF
:102510004CD96DC90EF92FE9C899E9898AB9ABA9D7
:102520004458654806782768C018E1088238A3280F
:102530007DCB5CDB3FEB1EFBF98BD89BBBAB9ABB27
:10254000754A545A376A167AF10AD01AB32A923A5F
:102550002EFD0FED6CDD4DCDAABD8BADE89DC98D77
:10256000267C076C645C454CA23C832CE01CC10CAF
:102570001FEF3EFF5DCF7CDF9BAFBABFD98FF89FC7
:10258000176E367E554E745E932EB23ED10EF01EFF
:102590007C3C3E5E2B3D3F2F5B5D3B2C2A225C004A
:1025A0004E6F206572726F7220666F756E642E00BA
:1025B00043616E2774206F70656E20726F6F742098
:1025C0006469726563746F72792E00496E76616C0E
:1025D000696420666F726D61742C207265666F721B
:1025E0006D61742053442E004E6F20636172642C21
:1025F0002077726F6E6720636869702073656C6501
:1026000063742070696E2C206F72205350492070C3
:10261000726F626C656D3F0043616E277420616369
:102620006365737320534420636172642E20446F8A
:10263000206E6F74207265666F726D61742E00017A
:10264000060C00FE030229036300FF000AFE0800D7
:10265000025767A80088008800A8025767F088E83A
:10266000A8E888F002576770A8F8A8F8A870025781
:10267000677088080808887012456560901090603F
:102680000158687088808088780808025767202081
:102690002020A87020026767F8FCFC9CFCFCF80274
:1026A000576770F8F8A8F8F870FFFFFFFFFFFFFF0B
:1026B0000355652040F840200257672070A820206D
:1026C00020200355652010F8102002576720202095
:1026D00020A8702004536350F8500257672070A858
:1026E00020A87020025969C0F0E0A020101008084E
:1026F0000259691878382820404080800259698042
:1027000080404020283878180259690808101020A5
:10271000A0E0F0C00365652848FC503003656530D3
:1027200028FC4850046363C0D8640463630C6C984D
:102730000365652850FC50280258682070A870A8CE
:102740002020200365655028FC285002586820206E
:1027500020A870A870200365652448F0482403650C
:102760006590483C48900355652848F8482802572A
:10277000672070A8202020F8035565A090F890A04D
:10278000025767F8202020A870200257672070A801
:1027900020A870F80365652844F84020036565505B
:1027A000887C0810036565204CFC4828036565108B
:1027B000C8FC485003646448DCEC4803656508586D
:1027C000FC68400257678090B0D09038100258687B
:1027D0002040F848280808080258682010F890A0FF
:1027E0008080800258680808082848F8402002576E
:1027F000678080A090F81020035464F01038100314
:102800005565080848F840035565304848E84803CE
:102810005565609090B810025868F880E0C0A0201C
:102820001010025969A0C0F8C0A818F8182802565C
:10283000663830A8888870025666E060A88888707C
:102840000553632040F8035363F840202238688022
:10285000C0A080808080800238682060A020202076
:1028600020200553632010F8035363F8102022380A
:10287000688080808080A0C080023868202020206E
:1028800020A060200259692010F8102040F8402054
:1028900002586850F050505050785002596920400A
:1028A000F8402010F810200259692040F8402040DC
:1028B000F8402002586850F850505050505002597B
:1028C000692010F8102010F810200258685050505D
:1028D000505050F8500257672040F800F81020027E
:1028E00057672010F800F8402002676714287C9092
:1028F0007C20500267670858FCA4FC6840026767A8
:10290000A050F824F810280355652078807820021C
:1029100057672050D85050505003556520F008F0AC
:102920002002576750505050D8502003656548FC2E
:1029300084FC480258682050D85050D85020026675
:1029400066F8A0D0A894080266667C142C54A440B3
:1029500002666640A4542C147C0266660894A8D0D3
:10296000A0F8026767103C40FC403C1002676720FB
:10297000F008FC08F02003646440E8D44003646479
:10298000085CAC080258682070A8207020702002F3
:1029900058682070207020A870200365652040D4FE
:1029A00040200258682070882000200020036565C0
:1029B0001008AC0810025868200020002088702001
:1029C000035565A0C0F8C0A00355652818F818285D
:1029D00003556520788878200258682050D85050D8
:1029E00050507003556520F088F0200258687050F0
:1029F000505050D850200259692050D85070007063
:102A000050700259692050D8505050D888F8025957
:102A1000692050F8885050D888F80259692070F819
:102A2000707070F8A8F80259692050D850D85050EA
:102A300050700259692050D850D850D888F80355A2
:102A400065A0F088F0A0025868F880B0A090100847
:102A50000802586880804048286808F802586820B2
:102A600050D85050D850200365651068FC6810029B
:102A70005868507850505050F05002596910F81072
:102A800010F81010F8100365652848FC4828036505
:102A9000655048FC48500365653078FC7830036524
:102AA000653858FC58380365657068FC68700365C4
:102AB000653078FC78300355652060B86020035598
:102AC000652030E830200365653078B478300666DC
:102AD00066FCFCFCFCFCFC006262FCFC006363FC2A
:102AE000FCFC006565FCFCFCFCFC006666FCFCFC78
:102AF000FCFCFC006868FCFCFCFCFCFCFCFC0069C9
:102B000069FCFCFCFCFCFCFCFCFC006B6BFCFCFCB6
:102B1000FCFCFCFCFCFCFCFC006C6CFCFCFCFCFC11
:102B2000FCFCFCFCFCFCFC005C6CF8F8F8F8F8F829
:102B3000F8F8F8F8F8F8004C6CF0F0F0F0F0F0F07D
:102B4000F0F0F0F0F0004C6CF0F0F0F0F0F0F0F09D
:102B5000F0F0F0F0003C6CE0E0E0E0E0E0E0E0E02D
:102B6000E0E0E0002C6CC0C0C0C0C0C0C0C0C0C0AD
:102B7000C0C0002C6CC0C0C0C0C0C0C0C0C0C0C0FD
:102B8000C0001C6C808080808080808080808080FD
:102B9000303C6CE0E0E0E0E0E0E0E0E0E0E0E001DC
:102BA0006B6BA8005400A8005400A80054006C6C83
:102BB000A854A854A854A854A854A854006C6C5401
:102BC000FCA8FC54FCA8FC54FCA8FC0A6262FCFCB7
:102BD000501C6C808080808080808080808080001D
:102BE0003666E0E0E0E0E0E0303666E0E0E0E0E0DD
:102BF000E0063666E0E0E0E0E0E0006C6CE0E0E09B
:102C0000E0E0E0FCFCFCFCFCFC006C6CE0E0E0E0E4
:102C1000E0E01C1C1C1C1C1C006C6CFCFCFCFCFC88
:102C2000FCE0E0E0E0E0E0006C6CFCFCFCFCFCFCA8
:102C30001C1C1C1C1C1C363666E0E0E0E0E0E000DA
:102C40006C6C1C1C1C1C1C1CE0E0E0E0E0E0006C58
:102C50006C1C1C1C1C1C1CFCFCFCFCFCFC025565BC
:102C6000F8F8F8F8F8025565F8888888F80255658C
:102C70007088888870025565F888A888F8025565BC
:102C8000F888F888F8025565F8A8A8A8F8025565EC
:102C9000F8A8F8A8F8025565F8C8A898F80255658C
:102CA000F898A8C8F8025565F8D8A8D8F81433637E
:102CB000E0E0E0143363E0A0E0036565FCFCFCFCAD
:102CC000FC036565FC848484FC114A6AF0F0F0F032
:102CD000F0F0F0F0F0F0114A6AF09090909090903F
:102CE0009090F00463633C78F00463633C48F00226
:102CF000576720207070F8F8F8025767202050506E
:102D00008888F803556520207070F80355652020E9
:102D10005050F812476780C0E0F0E0C0801247676B
:102D200080C0A090A0C08013356580C0E0C0801333
:102D3000356580C0A0C080036565C0F0FCF0C003AD
:102D40006565C0B08CB0C0025767F8F8F8707020A5
:102D500020025767F8888850502020025565F87087
:102D6000702020025565F85050202012476710301F
:102D700070F07030101247671030509050301013C0
:102D800035652060E060201335652060A060200379
:102D900065650C3CFC3C0C0365650C34C4340C03C9
:102DA00055652070F8702003556520508850200329
:102DB00055652050A850200266663048B4B44830AB
:102DC0000257672050508850502002666630488471
:102DD0008448300266662008800440100255657001
:102DE000A8A8A8700257677088A8D8A8887002663B
:102DF000663078FCFC78300266663068E4E468305F
:102E000002666630589C9C5830026666304884FCE6
:102E100078300266663078FC844830026666305846
:102E20009C8448300266663068E4844830125969F0
:102E300008387878F87878380802596980E0F0F036
:102E4000F8F0F0E080006C6CFCFCFCFCCC8484CCE2
:102E5000FCFCFCFC006C6CFCFCFCCCB47878B4CCC6
:102E6000FCFCFC066666FCFCFCCCB478006666786C
:102E7000B4CCFCFCFC0533632040803533638040D8
:102E80002032336320408002336380402005636337
:102E900030488402636384483002556508183878E6
:102EA000F802556580C0E0F0F8025565F8F0E0C022
:102EB00080025565F878381808025565708888884A
:102EC00070025565F8E8E8E8F8025565F8B8B8B852
:102ED000F8025565F8F8E8C8F8025565F898B8F8AA
:102EE000F8025565F8A8A8A8F80257672020507086
:102EF000A888F802576720207070E8E8F802576742
:102F000020207070B8B8F80267673048848484481D
:102F100030025565F8A8E888F8025565F888E8A8F1
:102F2000F8025565F888B8A8F8025565F8A8B88879
:102F3000F802556570A8E888700255657088E8A8A1
:102F4000700255657088B8A87002556570A8B88879
:102F500070035565F890A0C080035565F84828189F
:102F60000803556580C0A090F8144464F09090F078
:102F7000134464F0F0F0F0144464F09090F01444C2
:102F800064F0F0F0F003556508182848F80000FFD9
:102F900000000000010100000000FF0000031027F6
:102FA0000200CE340310270200D2340100000100D9
:102FB000D6340200000600D83403ED030400E434E4
:102FC00003EE030400EC3403EF030400F43403FACB
:102FD000030400FC3403FB030400043503FC030476
:102FE000000C350200000B00143502000006002A18
:102FF000350200000A00363505881304004A3552B0
:1030000065717565737450617573653A00696D70AB
:103010006F7274616E743A2046696C616D656E748E
:10302000206368616E676520726571756972656499
:10303000210055495F414354494F4E5F484F4D452C
:103040005F5A200055495F414354494F4E5F484FF6
:103050004D455F59200055495F414354494F4E5FEC
:10306000484F4D455F58200055495F414354494FF3
:103070004E5F484F4D45414C4C20004A616D2063E6
:103080006F6E74726F6C2064697361626C65643A10
:10309000008025000040380000004B0000807000D8
:1030A0000000960000C0DA000000E10000002C01E2
:1030B0000008B2010000C2010000F4010000840316
:1030C0000090D0030000E803000008070020A107DB
:1030D0000000100E0040420F0060E31600000000E8
:1030E0000055495F414354494F4E5F45504F534946
:1030F00054494F4E200055495F414354494F4E5F5C
:103100005A504F534954494F4E5F46415354200043
:1031100055495F414354494F4E5F59504F534954AD
:10312000494F4E5F46415354200055495F41435437
:10313000494F4E5F58504F534954494F4E5F464197
:103140005354200055495F414354494F4E5F5A50F4
:103150004F534954494F4E200055495F414354490C
:103160004F4E5F59504F534954494F4E20005549D7
:103170005F414354494F4E5F58504F534954494F54
:103180004E200002000009005235000002643500A4
:1031900000A2006B35723582000001007935030012
:1031A0000400206465632000206465662000000040
:1031B000003FCDCC4C3D0AD7A33B6F12033A000031
:1031C00000000000000000000000000000000000FF
:1031D00001FFFF0000000000078000FFFE0000006C
:1031E0003800000007800000C3E1F07F0FC0000737
:1031F0001F87C1FC3FC00038FFFFFFF0FE4001C346
:10320000FFFFFFC1FC400F0000000007F0403FFF40
:10321000FF80001FE0403FFFFFFFFFFF80403FFFB8
:10322000FFFFFFFF00403FFFFFFFFFFE00403000B9
:103230000001FFFC04403000000000FC0C403000A6
:10324000000000381C403000000000383E403000D4
:10325000000000387E4030FFFF800038FE4030FF25
:10326000FFF80038FE4030FFFFFE0038E64030FF38
:10327000FFFF0038E64030FFFFFF8038C64030FFD8
:10328000FFFF8038C64030FFBFFF8038C44030FFAA
:1032900080FFC038C44030FF80FFC038C44030FFDA
:1032A000807FC038CC4030FF807FC038FC4030FF8A
:1032B000807FC038F84030FF80FFC038F84030FFD2
:1032C000FFFFC038F04030FFFFFF8038E04030FFA4
:1032D000FFFF8038E04030FFFFFF0038C04030FF84
:1032E000FFFE0038C04030FFFFF00038C04030FF24
:1032F0009FF00038C04030FF8FFC0038C04030FFE6
:1033000087FC0038C04030FF87FE0038C04030FFE7
:1033100083FF0038C08030FF83FF0038C08030FF5B
:1033200081FF8038C10030FF81FF8038C20030FF4C
:1033300080FFC038820030FF80FFC038840030FF3B
:10334000807FE0380800307F807FE0380800300F51
:10335000803FE03810003000003FF03810003800A7
:103360000003F038200038000000003840003C0026
:103370000000003840003FF80000003980003FFFA7
:10338000F800003D000000FFFFF8007F000000078C
:10339000FFFFF87E0000000007FFFFFC00000000B8
:1033A0000003FFF80000000000000DF8000000001E
:1033B0000000000000000000000000000000536555
:1033C0006C66204D616465004D795072696E74655C
:1033D00072004D616368696E653A0056657220300F
:1033E0002E39322E3900526570657469657200FF9E
:1033F000D0FFE0FFCAFFD140A1C0A6A22FF800274E
:103400008108AC00AFFF64A5FF64FF64A4FFD0FF98
:10341000FEFFE0FFD11004FFFEFFE0FFD1AC00AEE5
:10342000A5FFD0FFFEFFE0FFD1A4AFFF32FFD0FF2A
:10343000FEFFD0FFE0FFC1FFD13FC0FF14FFD23F2E
:10344000C0FF14FFD0FFFEFFD0FFE0FFC1FFD1AEF1
:10345000D580A83FD300408D142002A1C8DA128184
:10346000CFD9F1DB402EA4A6AFFFD0FFFEFFE0FFD7
:10347000D11002FFFEFFE0FFD1AEFFD0FFFEFFE064
:10348000FFD1AFFF32FFD0FFFEFFE0FFD11000FF02
:10349000FEFFD0FFE0FFC1FFD1AED580A83FD30033
:1034A000408D142000A1C8DA1281CFD9F1DB402E63
:1034B000A4A6AFFFD0FFFEFFD0FFE0FFCFFF64FF69
:1034C000D1FF32380C060201FF64FFD0FFFE7B35CE
:1034D00084358D3596359F359F35A835B135BA354C
:1034E000C335CC35D535DE35E735F035F93502361F
:1034F0000B3614361D3626362F36383641364A36C8
:1035000053365C3665366E36773680368936923677
:103510009B36A4369F35AD36B636BF36C836D13663
:10352000DA36E336EC36F536FE369F350737103798
:10353000193722372B379F35AD3634373D3746376D
:103540004F375837613722376A3773377C378537BB
:103550008E379F359737A835A037A937B237BB3795
:10356000C437CD370200000800D63700000006003F
:10357000E6370000000400F237FA370000000000D0
:103580000000A50000000000000000A600000000F0
:1035900000000000A70000000000000000A80000DC
:1035A0000003E80300000A00000003F503010248DD
:1035B00000000003F60302044900000003F70304BF
:1035C000004A0000000203380200C900000003F4B2
:1035D0000301024D00000000000000005700000041
:1035E000000000000058000000000000000059002A
:1035F000000000000000005A000000000000000071
:103600005B00000000000000005C00000000000003
:1036100000005D00000000000000005E00000000EF
:10362000000000005F0000000000000000600000DB
:1036300000000000000061000000000000000062C7
:103640000000000000000000630000000000000017
:1036500000640000000000000000650000000000A1
:10366000000000660000000000000000670000008D
:103670000000000000680000000000000000690079
:10368000000000000000006A0000000000000000D0
:103690006B00000000000000006C00000000000053
:1036A00000006D00000000000000006E000000033C
:1036B000FD03001013000000041F040000B0000010
:1036C000000448040000B10000000388130000CB90
:1036D0000000000337040000170000000347040047
:1036E000001800000003380400001A000000033135
:1036F0000400101B00000003430400101C00000025
:103700000336040000C60000000461040000240029
:103710000000046204000025000000033A040000D9
:1037200028000000020A38000023000000034404BF
:1037300000002E00000003FE030010140000000330
:10374000FF03001015000000030004001016000025
:103750000002B92F00001D00000002C02F00001F52
:1037600000000002C72F00002100000002113800F5
:1037700000060100000000000000CC000000000076
:10378000000000CD0000000000000000CE0000009E
:103790000000000000CF00000002E32F00000B003B
:1037A000000002F12F00000E00000002EA2F0000CE
:1037B0000F00000002183800007D00000002B22F48
:1037C000000010000000021F38000011000000027D
:1037D000263800000D009F352D3836383F384838E0
:1037E00051385A3863386C3875387E388738903895
:1037F0009938A238AB38B438BD38C63803A426008F
:103800000000000200000300CE3803F0030400D4DF
:10381000380200000400DC380200000800E438022E
:1038200000000600F438020000090000390000041E
:103830002D040000930000000422042000940000E6
:1038400000042304200097000000042404200098B2
:103850000000000425042000990000000426042034
:10386000009A000000042F0400009B0000000000EC
:10387000000000E50000000000000000E60000007D
:103880000000000000E70000000000000000E80069
:1038900000000000000000E900000000000000003F
:1038A000EA0000000000000000C30000000000006B
:1038B0000000F00000000000000000C40000000054
:1038C00000000000F100456E676C697368001239F2
:1038D0001B3924392D3936393F3948399F3551390B
:1038E0005A3963399F356C3975397E398739903942
:1038F0009939A2399F35AB39B439BD39C639CF3979
:103900009F35D839E139EA39F339FC398A31053A3A
:103910000E3A00000100000000C900000003E803A7
:103920000000040000000354240200030000000013
:10393000000000006F0000000000000000700000A8
:10394000000000000000AB0000000000000000F2DA
:1039500000000004B40F00000701000004B50F00D0
:10396000000801000004B60F000009010000045225
:103970000400007E000000031A0408007F0000001D
:10398000031B04000080000000031C0400008100F1
:103990000000031D04000082000000031E0400005C
:1039A0008300000003B4040000D2000000037E0482
:1039B00000003C000000037F0400003D0000000305
:1039C000800400003E00000003810400003F00006E
:1039D0000003820400000A01000002173A00008A76
:1039E000000000021E3A0000E400000002253A0038
:1039F0000039000000022C3A00004E0000000233A3
:103A00003A00000F00000003060400003A00000026
:103A100003070400003B0002000004003A3A0200E1
:103A2000000200423A0200000900463A0200000784
:103A300000583A0200001200663A9F358A3A933ADB
:103A40009C3A9F35FA379F35A53AAE3AB73AC03A15
:103A5000C93AD23ADB3AE43A9F35ED3AF63AFF3AC0
:103A6000083B113B1A3B9F35233B2C3B353B3E3BF0
:103A7000473B503B593B623B2D3836383F3848383E
:103A800051385A386B3B743B633800000410040013
:103A9000008B000000027D3B0000840000000284D7
:103AA0003B00008700000004080400002F00000015
:103AB000040904000030000000040A040000310082
:103AC0000000040B04000033000000040C0400009C
:103AD00034000000040D04000035000000040E0452
:103AE000000037000000040F04000038000000044C
:103AF000140400004F0000000415040000500000F2
:103B000000041604000051000000041104000053DA
:103B1000000000041204000054000000041304001C
:103B2000005500000004290400008C000000042C53
:103B30000400008D000000042B0400008E00000033
:103B4000042A0400008F000000042E0400009000EE
:103B50000000044D040000BC000000044C04000000
:103B6000BB00000004460400009100000004220491
:103B70004000950000000426044000960003200445
:103B800002008B3B03580402008F3B933B9C3BA5F8
:103B90003BAE3B000000000000008500000000007C
:103BA0000000008600000000000000008800000007
:103BB0000000000000890000050700FF060248031E
:103BC000BA00FFFF08FF06FF050505050000A80075
:103BD0008800A80508080600000808082848F840DA
:103BE0002003030306010440A0400505050600006C
:103BF000F8F8F8F8F8050505060000F8888888F850
:103C00000508080600002050505070F8F8700705AD
:103C1000050900001CFE8282FE05080806000088D7
:103C200050208820508888060808060000489048E0
:103C3000FCFC783030060808060000244824FCFC10
:103C4000783030060505060000FCFC7830300602AE
:103C500002060000FCFC060606060000489048909C
:103C6000FCFC06060606000024482448FCFC070766
:103C700007070000824438283844820707070700F6
:103C800000101038EE381010FFFFFFFFFFFFFFFF9E
:103C9000FFFFFFFFFFFFFFFF00000005040001061C
:103CA0000605020080808080008003030305010375
:103CB000A0A0A005050505000050F850F850050526
:103CC0000505000070A0702870040606050000803D
:103CD000902040901004050505000040A040A05031
:103CE00001030305020380808002060605010040EF
:103CF00080808080400206060501008040404040F0
:103D000080030505050100A040E040A0050505056C
:103D100000002020F820200303030501FF604080FD
:103D2000040101050002F0020202050100C0C00406
:103D30000404050001102040800306060501004030
:103D4000A0A0A0A04003060605010040C0404040DE
:103D5000E00406060500006090102040F00406060E
:103D6000050000F0106010906004060605000020B9
:103D700060A0F02020040606050000F080E010900E
:103D8000600406060500006080E09090600406066E
:103D9000050000F0102020404004060605000060E9
:103DA000906090906004060605000060909070108E
:103DB00060020505050100C0C000C0C0030606057D
:103DC00000FF6060006040800305050501002040A1
:103DD000804020040303050001F000F00305050501
:103DE0000100804020408003060605010040A0201D
:103DF0004000400406060500006090B0B0806004FA
:103E00000606050000609090F090900406060500FC
:103E100000E090E09090E0040606050000609080CD
:103E2000809060040606050000E090909090E00409
:103E30000606050000F080E08080F004060605001C
:103E400000F080E08080800406060500006090801D
:103E5000B090700406060500009090F090909003DA
:103E60000606050100E040404040E004060605006B
:103E70000010101010906004060605000090A0C00D
:103E8000C0A0900406060500008080808080F004B9
:103E9000060605000090F0F09090900406060500DC
:103EA0000090D0D0B0B0900406060500006090905D
:103EB000909060040606050000E09090E080800489
:103EC00007070500FF60909090D06010040606057B
:103ED0000000E09090E0A0900406060500006090CD
:103EE00040209060030606050100E040404040404D
:103EF0000406060500009090909090600406060568
:103F0000000090909090606004060605000090907C
:103F100090F0F0900406060500009090606090908C
:103F2000030606050100A0A0A040404004060605C7
:103F30000000F010204080F0030606050100E0803C
:103F4000808080E004040405000180402010030606
:103F500006050100E020202020E003020205010404
:103F600040A0040101050000F002020205010480E6
:103F7000400404040500007090B0500406060500DB
:103F8000008080E09090E0030404050000608080E1
:103F90006004060605000010107090907004040480
:103FA00005000060B0C06004060605000020504017
:103FB000E040400405050500FF7090608070040635
:103FC000060500008080E090909003060605010041
:103FD0004000C04040E00307070501FF200020200B
:103FE00020A0400406060500008080A0C0A0900329
:103FF0000606050100C040404040E00404040500FE
:1040000000A0F09090040404050000E0909090045B
:104010000404050000609090600405050500FFE0C1
:104020009090E0800405050500FF709090701004EA
:104030000404050000E09080800404040500007082
:10404000C030E00406060500004040E04040300477
:10405000040405000090909070030404050100A082
:10406000A0A0400404040500009090F0F0040404B3
:10407000050000906060900405050500FF909050D9
:104080002040040404050000F02040F0030606056B
:1040900001002040C040402001060605020080804B
:1040A00080808080030606050100804060404080DB
:1040B00004020205000450A0FFFFFFFFFFFFFFFF07
:1040C000FFFFFFFFFFFFFFFFFFFFFFFFFFFFFFFF00
:1040D000FFFFFFFFFFFFFFFFFF00000005040001DF
:1040E0000606050200800080808080040606050028
:1040F000FF2070A0A070200405050500003040E0FE
:1041000040B005050505000088705070880306065C
:10411000050100A0A040E040400105050502008027
:10412000800080800307070501FF6080C0A0602039
:10413000C0030101050105A00507070500FF708800
:10414000A8C8A8887003030305000360A0600503E6
:1041500003050001489048040202050001F0100325
:104160000101050102E00507070500FF7088E8C8A6
:10417000C88870040101050005F00303030501036D
:1041800040A0400506060500002020F82020F80287
:104190000404050102C04080C0020404050102C0FD
:1041A000C040C0020202050104408004050505006C
:1041B000FF909090E08004060605000070D0D0507B
:1041C0005050020202050102C0C00202020501FFB6
:1041D000408003040405010240C040E003030305DE
:1041E000000340A040050303050001904890040728
:1041F000070500FF808080903070100407070500DD
:10420000FF808080B01020300407070500FFC0C089
:1042100040D030701003060605010040004080A029
:1042200040040606050000609090F0909004060699
:10423000050000609090F090900406060500006074
:104240009090F09090040606050000609090F09029
:1042500090040606050000906090F0909004060619
:10426000050000606090F090900406060500007064
:10427000A0B0E0A0B00407070500FF609080809028
:104280006040040606050000F080E08080F004062F
:1042900006050000F080E08080F0040606050000BE
:1042A000F080E08080F0040606050000F080E080E9
:1042B00080F0030606050100E040404040E00306B0
:1042C00006050100E040404040E00306060501000D
:1042D000E040404040E0030606050100E040404069
:1042E00040E0040606050000E050D05050E004060F
:1042F00006050000B090D0B0B0900406060500009E
:104300006090909090600406060500006090909088
:10431000906004060605000060909090906004068E
:10432000060500006090909090600406060500006D
:10433000906090909060040404050000906060908C
:1043400004060605000070B0B0D0D0E004060605F3
:1043500000009090909090600406060500009090F8
:1043600090909060040606050000909090909060F8
:104370000406060500009000909090600306060574
:104380000100A0A0A040404004060605000080E017
:1043900090E080800406060500006090A09090A048
:1043A00004060605000040207090B0500406060583
:1043B000000020407090B050040606050000205018
:1043C0007090B05004060605000050A07090B050E8
:1043D00004060605000050007090B0500406060563
:1043E000000060607090B05004040405000070B0DC
:1043F000A0700305050501FF60808060400406068B
:10440000050000402060B0C06004060605000020E2
:104410004060B0C06004060605000040A060B0C067
:1044200060040606050000A00060B0C06003060638
:104430000501008040C04040E00306060501004041
:1044400080C04040E003060605010040A0C0404097
:10445000E0030606050100A000C04040E004060697
:104460000500004030609090600406060500005092
:10447000A0E0909090040606050000402060909017
:104480006004060605000020406090906004060667
:104490000500006000609090600406060500005072
:1044A000A0609090600406060500005000609090A7
:1044B000600405050500006000F0006004040405C8
:1044C000000070B0D0E00406060500004020909087
:1044D000907004060605000020409090907004063D
:1044E000060500006000909090700406060500002C
:1044F0005000909090700407070500FF20409090B6
:104500005020400406060500FF80E09090E0800403
:1045100007070500FF5000909050204000070A0058
:10452000FE07026903FB00FFFE08FE07FE05070702
:10453000060000A80088008800A8050808060000FA
:104540000808082848F8402003030306010440A097
:1045500040050505060000F8F8F8F8F80505050619
:104560000000F8888888F8050808060000205050E8
:104570005070F8F8700705050900001CFE8282FEE5
:104580000508080600008850208820508888060802
:1045900008060000489048FCFC7830300608080601
:1045A0000000244824FCFC78303006050506000095
:1045B000FCFC783030060202060000FCFC06060611
:1045C00006000048904890FCFC0606060600002401
:1045D000482448FCFC0707070700008244382838B5
:1045E0004482070707070000101038EE381010FF4C
:1045F000FFFFFFFFFFFFFFFFFFFFFFFFFFFFFF00CA
:1046000000000605FF010707060200808080808009
:104610000080030303060104A0A0A005070706000D
:10462000005050F850F85050050707060000207061
:10463000A07028702006080806000044A448102036
:1046400048948805070706000040A0A040A890688D
:10465000010303060204808080030707060100208F
:104660004080808040200307070601008040202012
:104670002040800505050600018850F85088050592
:10468000050600012020F820200303030601FF6037
:104690004080040101060103F00202020601FFC08E
:1046A000C0050707060000080810204080800507A5
:1046B000070600002050888888502005070706005C
:1046C000002060A0202020F8050707060000708861
:1046D00008304080F8050707060000F80810300889
:1046E000887005070706000010305090F81010057C
:1046F0000707060000F880B0C8088870050707069D
:104700000000304080B0C88870050707060000F838
:1047100008101020404005070706000070888870C8
:104720008888700507070600007088986808106080
:10473000020505060201C0C000C0C003070706014C
:10474000FF40E040006040800407070601001020A1
:104750004080402010050303060002F800F804071B
:104760000706010080402010204080050707060052
:1047700000708810202000200507070600007088C0
:1047800098A8B0807005070706000020508888F8B8
:104790008888050707060000F04848704848F0057B
:1047A000070706000070888080808870050707066C
:1047B0000000F04848484848F0050707060000F8A0
:1047C0008080F08080F8050707060000F88080F000
:1047D00080808005070706000070888080988870B8
:1047E000050707060000888888F888888803070777
:1047F000060100E04040404040E005070706000099
:10480000381010101090600507070600008890A06F
:10481000C0A0908805070706000080808080808007
:10482000F80507070600008888D8A8888888050743
:10483000070600008888C8A898888805070706002A
:104840000070888888888870050707060000F0884F
:1048500088F08080800508080600FF7088888888B6
:10486000A87008050707060000F08888F0A0908867
:104870000507070600007088807008887005070724
:10488000060000F820202020202005070706000051
:1048900088888888888870050707060000888888C7
:1048A00050505020050707060000888888A8A8D81F
:1048B000880507070600008888502050888805076B
:1048C00007060000888850202020200507070600E2
:1048D00000F80810204080F8030707060100E08078
:1048E00080808080E005070706000080804020105F
:1048F0000808030707060100E02020202020E0052B
:1049000003030600042050880501010600FFF80299
:1049100002020602068040050505060000700878C0
:1049200088780507070600008080B0C888C8B005F1
:1049300005050600007088808870050707060000DE
:10494000080868988898680505050600007088F8CA
:104950008070050707060000304840F040404005E1
:1049600007070600FE78888878088870050707061C
:1049700000008080B0C888888803070706010040CF
:1049800000C0404040E00409090601FE100030105C
:10499000101090906005070706000080808890E066
:1049A0009088030707060100C04040404040E005F2
:1049B0000505060000D0A8A8A88805050506000082
:1049C000B0C888888805050506000070888888704A
:1049D0000507070600FEB0C888C8B0808005070735
:1049E0000600FE6898889868080805050506000016
:1049F000B0C880808005050506000070807008F052
:104A00000507070600004040F04040483005050516
:104A100006000088888898680505050600008888D3
:104A20005050200505050600008888A8A8500505F7
:104A30000506000088502050880507070600FE88FC
:104A4000889868088870050505060000F810204061
:104A5000F8040707060100304020C020403001075D
:104A6000070602008080808080808004070706019E
:104A700000C02040304020C005030306000448A8C1
:104A800090FFFFFFFFFFFFFFFFFFFFFFFFFFFFFFA5
:104A9000FFFFFFFFFFFFFFFFFFFFFFFFFFFFFFFF26
:104AA000FFFFFF01070706020080008080808080F2
:104AB0000507070600FF2078A0A0A07820050707BB
:104AC000060000304840E04048B0050505060000FB
:104AD00088705070880508080600FF88885020F804
:104AE000202020010707060200808080008080804F
:104AF0000508080600FF7080E09048380870030140
:104B000001060107A00507070600007088A8C8A8CD
:104B100088700406060601017090B05000F006058A
:104B2000050600002448904824040202060102F011
:104B300010FF0507070600007088E8C8C8887005E0
:104B40000101060007F803030306010440A0400525
:104B500006060600002020F82020F80405050601BE
:104B60000360902040F0040505060103E01060108A
:104B7000E00202020602064080FF05070706000069
:104B800078E8E8682828280101010602038002026B
:104B9000020602FE408003050506010340C04040B6
:104BA000E00406060601016090906000F00605052D
:104BB00006000090482448900609090600FF40C0FE
:104BC0004040E40C143C040609090600FF40C040C4
:104BD00040E81404081C0509090600FFC020402015
:104BE000C818287808050707060000200020204084
:104BF00088700508080600004020708888F88888BA
:104C00000508080600001020708888F888880508C4
:104C1000080600002050708888F888880508080673
:104C2000000048B0708888F88888050808060000E9
:104C30005000708888F88888050808060000205011
:104C4000708888F888880607070600003C50909C0A
:104C5000F0909C0509090600FE70888080808870AD
:104C6000204005080806000040F88080F08080F8A9
:104C700005080806000010F88080F08080F805081C
:104C80000806000020F88080F08080F805080806FB
:104C9000000050F88080F08080F8030808060100CA
:104CA0008040E040404040E003080806010020400A
:104CB000E040404040E003080806010040A0E0401A
:104CC000404040E0030808060100A000E0404040EA
:104CD00040E0050707060000F04848E84848F005AE
:104CE0000808060000285088C8A898888805080881
:104CF0000600004020708888888870050808060033
:104D00000010207088888888700508080600002038
:104D10005070888888887005080806000028507040
:104D20008888888870050808060000500070888808
:104D30008888700505050600008850205088050702
:104D400007060000709898A8C8C8700508080600F3
:104D500000402088888888887005080806000010B0
:104D60002088888888887005080806000020500080
:104D700088888888700508080600005000888888A0
:104D800088887005080806000010208888502020B8
:104D90002005070706000080F088F0808080050766
:104DA00007060000708890A09088B00508080600EB
:104DB0000040200070087888780508080600001078
:104DC0002000700878887805080806000020500048
:104DD00070087888780508080600002850007008D8
:104DE00078887805070706000050007008788878F2
:104DF000050808060000205020700878887806050D
:104E00000506000078147C907C0507070600FE70FC
:104E10008880887020400508080600004020007047
:104E200088F880700508080600001020007088F8D7
:104E300080700508080600002050007088F8807017
:104E400005070706000050007088F8807003080806
:104E5000060100804000C0404040E0030808060111
:104E600000408000C0404040E003080806010040C8
:104E7000A000C0404040E0030707060100A000C0BA
:104E8000404040E0050707060000C0307088888871
:104E900070050808060000285000B0C888888805FA
:104EA00008080600004020007088888870050808FF
:104EB0000600001020007088888870050808060029
:104EC00000205000708888887005080806000028B7
:104ED0005000708888887005070706000050007031
:104EE000888888700505050600012000F800200567
:104EF00005050600007898A8C8F005080806000017
:104F0000402000888888986805080806000010205E
:104F100000888888986805080806000020500088E6
:104F200088889868050707060000500088888898D8
:104F3000680509090600FE102088889868088870AE
:104F40000508080600FE80F0888888F08080050942
:104F5000090600FE500088889868088870774F001E
:104F60000000000000000000000000000000000041
:104F7000000000000000FF8D519051945198519C09
:104F8000519F51AB51B451B951C451D451DB51EA85
:104F900051EE51FC5105520E52165220522B5234F2
:104FA000523B5242524952555261526C5275528391
:104FB0005293529E52AA52B552C152CC52D852E785
:104FC00052FA520D53205333534453555366537979
:104FD000538C539F53AA53B653C253CE53D853E462
:104FE00053F053FC53055411541D542A543A544958
:104FF00054555461546D54795485549554A254B108
:1050000054C054CF54DE54E854F354FF540E551B8F
:1050100055265532553B5545554F55595561556C9B
:1050200055775582558B559B55AB55BB55BC55CCCB
:1050300055DC55EC55ED55FD550D561D561E5627A4
:105040005637564756485651566156715672567BDA
:10505000568B569B569C56A556B456BD56CD56D625
:1050600056E656EF56FF5608571857215731573A0C
:10507000574A5754576557725780578E579C57A9B0
:1050800057BA57CA57D657E457F457005808581517
:105090005822582F583A5844585258625873587FDB
:1050A0005889589658A658B058BA58C858D658E291
:1050B00058EF58FC58055909591459255931593890
:1050C000594959575968597659875994599F59B030
:1050D00059C159D259E359F459065A185A235A2F2B
:1050E0005A375A405A475A4E5A555A685A745A852E
:1050F0005A975AA75AB85AC75ACE5AD05AD15ADFD5
:105100005AF05AF85A095B135B1C5B275B395B4901
:105110005B595B685B795B895B985BA85BBC5BCC2C
:105120005BD75BE75BF85B055C0D5C195C2C5C2D69
:105130005C385C415C485C585C675C725C795C869E
:105140005C8F5CA05CB15CC75CDF5CE85CEC5CFF26
:105150005C095D1A5D2B5D375D3B5D415D4F5D53C5
:105160005D545D5E5D645D6B5D7E5D915DA45DB56E
:105170005DC65DD75DEA5DFD5D105E1E5E295E3633
:105180005E435E565E685E7B5E8E5EA15E4F6E0025
:105190004F6666004E2F4100596573004E6F0050F8
:1051A00072696E74696E672E2E2E005072696E746D
:1051B000696E670049646C65004E6F20534420633C
:1051C000617264002A2A2A2A204552524F52202A0C
:1051D0002A2A2A004261636B200100517569636BC2
:1051E0002073657474696E677300256F6500436F83
:1051F0006E66696775726174696F6E00506F73696E
:1052000074696F6E004578747275646572005344FA
:10521000206361726400446562756767696E670048
:10522000486F6D652064656C746100486F6D652022
:10523000616C6C00486F6D65205800486F6D65208B
:105240005900486F6D65205A005072656865617439
:1052500020504C4100507265686561742041425392
:10526000004C69676874733A256C6F00436F6F6C0C
:10527000646F776E0053657420746F206F72696776
:10528000696E0044697361626C6520737465707047
:105290006572005820706F736974696F6E005820D2
:1052A000706F732E2066617374005920706F73697C
:1052B00074696F6E005920706F732E20666173746D
:1052C000005A20706F736974696F6E005A20706F96
:1052D000732E206661737400457874722E20706F8F
:1052E000736974696F6E004265642074656D703A0D
:1052F0002565622F25456202430054656D702E209E
:1053000031203A2565302F25453002430054656D24
:10531000702E2032203A2565312F25453102430079
:1053200054656D702E2033203A2565322F25453285
:105330000243005475726E20657874722E203120FD
:105340006F6666005475726E20657874722E203216
:10535000206F6666005475726E20657874722E2018
:1053600033206F6666002558302053656C65637482
:1053700020657874722E2031002558312053656CD9
:1053800065637420657874722E20320025583220AF
:1053900053656C65637420657874722E20330053F6
:1053A0006574204F726967696E005072696E74206F
:1053B000583A256178005072696E7420593A256117
:1053C00079005072696E74205A3A25617A005072E1
:1053D000696E743A25617A004D6F76652058203ADF
:1053E000256158004D6F76652059203A2561590096
:1053F0004D6F7665205A203A25615A004D6F7665CB
:105400003A25615A004A65726B2020203A25616A6C
:10541000005A2D4A65726B203A25614A0041636348
:10542000656C65726174696F6E0053746F7265208C
:10543000746F20454550524F4D004C6F616420669B
:105440002E20454550524F4D004563686F20202067
:105450003A25646F00496E666F2020203A25646902
:10546000004572726F7273203A2564650044727948
:105470002072756E3A25646400254F30204F5053DA
:10548000206F666600254F31204F505320636C61BA
:105490007373696300254F32204F50532066617348
:1054A0007400526574726163742020203A254F7233
:1054B000004261636B736C2E2020203A254F6200FE
:1054C0004D696E2E6469737420203A254F64004D37
:1054D0006F76652061667465723A254F6100416E92
:1054E0007469206F6F7A65005072696E7420666906
:1054F0006C65005061757365207072696E7400434D
:105500006F6E74696E7565207072696E7400556E89
:105510006D6F756E742063617264004D6F756E748B
:1055200020636172640044656C6574652066696C13
:1055300065004665656472617465004D6178205848
:105540003A256678004D617820593A256679004DF4
:105550006178205A3A25667A004D61783A25667A54
:1055600000486F6D6520583A25665800486F6D6594
:1055700020593A25665900486F6D65205A3A2566CC
:105580005A00486F6D653A25665A00583A257830BA
:10559000206D6D20256478256458004D696E206566
:1055A0006E6473746F703A257378004D617820656E
:1055B0006E6473746F703A2573580000593A2578F9
:1055C00031206D6D20256479256459004D696E2068
:1055D000656E6473746F703A257379004D6178203D
:1055E000656E6473746F703A25735900005A3A25DA
:1055F0007832206D6D2025647A25645A004D696EDD
:1056000020656E6473746F703A25737A004D61780B
:1056100020656E6473746F703A25735A0000583AAF
:10562000257830206D6D004D696E20656E64737451
:105630006F703A257378004D617820656E647374DD
:105640006F703A2573580000593A257831206D6DF6
:10565000004D696E20656E6473746F703A257379BE
:10566000004D617820656E6473746F703A257359CC
:1056700000005A3A257832206D6D004D696E206524
:105680006E6473746F703A25737A004D617820658B
:105690006E6473746F703A25735A0000453A25782A
:1056A00033206D6D003120636C69636B203D2031C8
:1056B000206D6D00583A257830206D6D004D696E73
:1056C0003A257378204D61783A25735800593A2568
:1056D0007831206D6D004D696E3A257379204D61EA
:1056E000783A257359005A3A257832206D6D004D6D
:1056F000696E3A25737A204D61783A25735A0058BD
:105700003A257830206D6D004D696E3A257378200A
:105710004D61783A25735800593A257831206D6DDE
:10572000004D696E3A257379204D61783A25735999
:10573000005A3A257832206D6D004D696E3A257316
:105740007A204D61783A25735A0046616E20737055
:105750006565640046616E2073706565643A254630
:1057600073252525005475726E2066616E204F6684
:1057700066005365742066616E203235252525004C
:105780005365742066616E203530252525005365EC
:10579000742066616E2037352525250053657420F9
:1057A00066616E2066756C6C00537465707065720E
:1057B00020696E616374697665004469732E2061A7
:1057C000667465723A20256973005B6D696E5D20B1
:1057D000303D4F6666004D61782E20696E616374BE
:1057E000697665004469732E2061667465723A209B
:1057F000256970005B6D696E5D20303D4F66660007
:1058000047656E6572616C004261756472617465B2
:105810003A256F630053746570732F4D4D3A2553CD
:10582000650053746172742046523A255866004DE3
:1058300061782046523A25584600416363656C3AC8
:1058400025584100537461622E54696D653A25589C
:105850007700416476616E6365206C696E3A255805
:105860006C00416476616E636520717561643A25F0
:10587000586100436F6E74726F6C3A25586800501F
:10588000494420503A255870004465616474696D3C
:10589000653A25587000436F6E74726F6C205057D4
:1058A0004D3A25584D0050494420493A2558690041
:1058B00050494420443A2558640044726976652072
:1058C0004D696E3A25586D004472697665204D61C8
:1058D000783A25584D00504944204D61783A255872
:1058E0004400582D4F66667365743A255878005900
:1058F0002D4F66667365743A2558790042616E676C
:1059000042616E670050494400416374696F6E3AAA
:10591000256C610048656174696E672065787472F2
:10592000756465720048656174696E6720626564BC
:10593000004B696C6C65640053746570706572200F
:1059400064697361626C656400436F6E6669677554
:10595000726174696F6E0073746F72656420696E32
:1059600020454550524F4D00436F6E666967757212
:105970006174696F6E006C6F6164656420662E20CF
:10598000454550524F4D0055706C6F6164696E67AC
:105990002E2E2E004275666665723A256F420020F3
:1059A000453A2565632F25456302437E256F4300F5
:1059B00045313A2565302F25453002437E256F302D
:1059C0000045323A2565312F25453102437E256F4A
:1059D000310045333A2565322F25453202437E2575
:1059E0006F320020423A2565622F25456202437ED0
:1059F000256F62005370656564206D756C2E3A25C5
:105A00006F6D25252500466C6F77206D756C2E20F7
:105A10003A256F662525250053686F77206D6561EF
:105A2000732E005265736574206D6561732E00538B
:105A30006574205A3D30005A2063616C69622E0003
:105A40005365742050310053657420503200536503
:105A5000742050330043616C63756C617465206C15
:105A60006576656C696E67004C6576656C2064656B
:105A70006C746100576169742074656D702E202507
:105A800058540243005761697420726574722E3A4B
:105A9000255855206D6D0053442063617264207257
:105AA000656D6F766564005344206361726420699C
:105AB0006E736572746564005072696E74657220ED
:105AC00072656164792E00206461797320003A0068
:105AD000005072696E74696E672074696D65004666
