:100000000C9463200C9490200C9490200C949020DD
:100010000C9490200C9490200C9490200C949020A0
:100020000C9490200C9490200C9490200C94902090
:100030000C9490200D9449150C9490200C949020D1
:100040000C9490200C9463850C9490200C94902038
:100050000C9490200C94FD830C947A840D94BA1126
:100060000C9490200C94DA810C9404820C949020CF
:100070000C9490200C9490200C9490200C94902040
:100080000C9490200C9490200C9490200C94902030
:100090000C9434820C945E820C9490200C949020EA
:1000A0000C9490200C9490200C9490200C94902010
:1000B0000C9490200C9490200C9490200C94902000
:1000C0000C9490200C9490200C9490200C949020F0
:1000D0000C9490200C9490200C9490200C949020E0
:1000E0000C9490207E7C987C987C987C987C987C62
:1000F000987C987C987C987C987C987C987C987C60
:10010000987C987C987C987C987C987C987C987C4F
:10011000987C407C4B7C2A7C1F7CC97BD47B377BC2
:10012000357CFE7B097C567C617C4A7B237B6C7C26
:10013000F37B987C147CE87BDF7B987C987C987CB4
:10014000A87BB37BBE7B987C987C987C987C987CC1
:10015000987C407C4B7C2A7C1F7CC97BD47B377B82
:10016000357CFE7B097C567C617C4A7B237B6C7CE6
:10017000F37B987C147CE87BDF7B987C987C987C74
:10018000A87BB37BBE7B084AD73B3BCE016E84BCC9
:10019000BFFDC12F3D6C74319ABD56833DDA3D00E1
:1001A000C77F11BED9E4BB4C3E916BAAAABE00002A
:1001B00000803F05A84CCDB2D44EB93836A9020C08
:1001C00050B9918688083CA6AAAA2ABE00000080E1
:1001D0003F2063203D20002062203D2000706C61A4
:1001E0006E653A2061203D20007A2D70726F626545
:1001F00020646964206E6F7420756E74726967671D
:10020000657220616674657220676F696E6720622F
:1002100061636B20746F20737461727420706F73EC
:100220006974696F6E2E00207A436F72723A007A99
:100230002D70726F626520646964206E6F74207522
:100240006E74726967676572206F6E207265706583
:10025000746974697665206D6561737572656D6525
:100260006E74202D206D6179626520796F75206E26
:1002700065656420746F20696E63726561736520C3
:1002800064697374616E636521007A2D70726F62A8
:100290006520747269676765726564206265666F60
:1002A0007265207374617274696E672070726F6218
:1002B000696E672E00000136372603023C3D380E7A
:1002C0000F2E303E12130D0C0A081A1C180D0E3595
:1002D00054657374696E6720666174616C20657221
:1002E000726F7200536574204D6963726F73746529
:1002F0007070696E670054726967676572696E67CE
:10030000207761746368646F672E2049662061639B
:10031000746976617465642C2074686520707269F4
:100320006E7465722077696C6C2072657365742ECB
:10033000005761746368646F672064697361626CFD
:1003400065640020746F200053657420766F6C75AF
:100350006D657472696320657874727573696F6E08
:1003600020666F722065787472756465722000442F
:10037000697361626C656420766F6C756D6574720B
:10038000696320657874727573696F6E20666F7229
:1003900020657874727564657220004D31313420A7
:1003A0000050696E2063616E206E6F74206265205C
:1003B000736574206279204D34322C206973206972
:1003C0006E2073656E7369746976652070696E73EB
:1003D000212000496C6C6567616C20532076616C4C
:1003E000756520666F72204D3432004175746F72EE
:1003F0006574726163743A00436F6C64206578744D
:10040000727573696F6E20646973616C6C6F776568
:100410006400436F6C6420657874727573696F6EE5
:1004200020616C6C6F776564004A616D2064656261
:10043000756767696E673A004A616D20636F6E7415
:10044000726F6C2064697361626C65643A00526516
:100450006C617469766520706F736974696F6E6919
:100460006E67004162736F6C75746520706F73699D
:1004700074696F6E696E6700473333206661696C1B
:1004800065642100596F75206E65656420746F2066
:10049000646566696E6520582C205920616E642061
:1004A0005A20746F20736574206120706F696E74B8
:1004B0002100473239206C6576656C696E6720666D
:1004C00061696C65642100473239206C6576656C22
:1004D000696E67206661696C656421004732392066
:1004E0000041646A7573746564207A206F7269676D
:1004F000696E004649524D574152455F4E414D4548
:100500003A52657065746965725F302E39322E39E2
:10051000204649524D574152455F55524C3A6874F6
:100520007470733A2F2F6769746875622E636F6DEC
:100530002F72657065746965722F52657065746994
:1005400065722D4669726D776172652F2050524F2A
:10055000544F434F4C5F56455253494F4E3A312EFC
:1005600030204D414348494E455F545950453A4D1E
:10057000656E64656C2045585452554445525F433E
:100580004F554E543A312052455045544945525FDB
:1005900050524F544F434F4C3A3300446562756795
:1005A0003A006F6B000D0A004E414E00494E460066
:1005B0004572726F723A00496E666F3A0057617207
:1005C0006E696E673A00526573656E643A00456302
:1005D000686F3A006F6B200057726F6E6720636818
:1005E00065636B73756D004D697373696E67206326
:1005F0006865636B73756D00466F726D617420651D
:1006000072726F7200446F6E65207072696E7469E9
:100610006E672066696C6500205800205900205ADA
:1006200000204500204600205300205000204900B3
:10063000204A002052005344207265616420657294
:10064000726F72004572726F723A6578706563748A
:100650006564206C696E65200020676F74200073EC
:100660006B69702000424C4B2000737461727400FF
:10067000506F77657255700045787465726E616C65
:100680002052657365740042726F776E206F7574C7
:10069000205265736574005761746368646F6720E6
:1006A000526573657400536F66747761726520528A
:1006B0006573657400556E6B6E6F776E20636F6D3A
:1006C0006D616E643A00467265652052414D3A0094
:1006D000583A0020583A0020593A00205A3A00204F
:1006E000453A00543A0020423A0020403A00205453
:1006F000002040002042403A0020524157003A007A
:100700002F00202F00666174616C3A00537065659C
:10071000644D756C7469706C793A00466C6F774DF6
:10072000756C7469706C793A0046616E73706565BA
:10073000643A0046616E7370656564323A005072C7
:10074000696E7465642066696C616D656E743A00EB
:100750005072696E74696E672074696D653A006DD8
:1007600020002064617973200020686F7572732007
:1007700000206D696E00496E76616C69642061725B
:1007800063002C002000593A005A3A0045303A00E4
:1007900045313A004D53312C4D53322050696E7320
:1007A00000536574206F75747075743A2000476546
:1007B0007420496E7075743A200020746F200020F8
:1007C000697320004820004C2000785F6D696E3A04
:1007D00000785F6D61783A00795F6D696E3A0079F3
:1007E0005F6D61783A007A5F6D696E3A007A5F6D8D
:1007F00061783A007A325F6D696E6D61783A004ACD
:1008000065726B3A00205A4A65726B3A00206C6937
:100810006E6561722073746570733A002071756142
:100820006472617469632073746570733A002C207C
:1008300073706565643D00454550524F4D2075709D
:100840006461746564006C696E656172204C3A0085
:1008500020717561647261746963204B3A00466966
:100860006C616D656E7420736C697070696E670081
:100870002F2F20616374696F6E3A70617573650024
:100880002F2F20616374696F6E3A726573756D65A1
:1008900000546172676574457874720054617267C0
:1008A00065744265643A00504944204175746F7420
:1008B000756E652073746172740020626961733AA9
:1008C000200020643A2000206D696E3A2000206DDF
:1008D00061783A2000204B753A20002054753A2068
:1008E0000020436C61737369632050494400204BBE
:1008F000703A2000204B693A2000204B643A2000D7
:10090000504944204175746F74756E652066616945
:100910006C6564212054656D7065726174757265D3
:1009200020746F6F206869676800504944204175E2
:10093000746F74756E65206661696C6564212074DE
:10094000696D656F757400504944204175746F740A
:10095000756E652066696E69736865642021205034
:100960006C61636520746865204B702C204B692096
:10097000616E64204B6420636F6E7374616E747378
:1009800020696E2074686520436F6E6669677572B2
:100990006174696F6E2E68206F7220454550524F0A
:1009A0004D004D54454D503A0068656174656420B2
:1009B00062656400657874727564657220003A201F
:1009C00074656D702073656E736F72206465666503
:1009D0006374003A20776F726B696E6700507269BA
:1009E0006E7465722073657420696E746F20647212
:1009F000792072756E206D6F646520756E74696CF8
:100A0000207265737461727421005A2D70726F6266
:100A1000653A005A2D70726F626520617665726169
:100A20006765206865696768743A00526573657424
:100A3000205A20686569676874005A2D70726F6269
:100A4000652073746174653A000000486974207A07
:100A50002D70726F6265004175746F6C6576656CA0
:100A6000206D6174726978207265736574004175D8
:100A7000746F6C6576656C696E6720656E61626C1B
:100A80006564004175746F6C6576656C696E67208E
:100A900064697361626C6564005472616E73666F41
:100AA000726D6174696F6E206D61747269783A005D
:100AB0005A2D70726F6265206661696C6564005AB8
:100AC0002D70726F6265206D61783A005072696EA8
:100AD000746572206865696768743A007761697443
:100AE00000436F6174696E6720746869636B6E653B
:100AF0007373205B6D6D5D005A2D70726F6265209F
:100B0000686569676874205B6D6D5D004D61782E66
:100B1000207A2D70726F6265202D206265642064DA
:100B20006973742E205B6D6D5D005A2D70726F625B
:100B300065206F66667365742078205B6D6D5D005F
:100B40005A2D70726F6265206F66667365742079C6
:100B5000205B6D6D5D005A2D70726F626520737041
:100B6000656564205B6D6D2F735D005A2D70726F2B
:100B7000626520782D792D7370656564205B6D6DDD
:100B80002F735D005A2D70726F6265205831205BA3
:100B90006D6D5D005A2D70726F6265205931205B5A
:100BA0006D6D5D005A2D70726F6265205832205B4A
:100BB0006D6D5D005A2D70726F6265205932205B39
:100BC0006D6D5D005A2D70726F6265205833205B29
:100BD0006D6D5D005A2D70726F6265205933205B18
:100BE0006D6D5D005A2D70726F62652062656E6476
:100BF000696E6720636F7272656374696F6E2041FE
:100C0000205B6D6D5D005A2D70726F6265206265AC
:100C10006E64696E6720636F7272656374696F6E6C
:100C20002042205B6D6D5D005A2D70726F626520F1
:100C300062656E64696E6720636F72726563746962
:100C40006F6E2043205B6D6D5D00436F6E6669675C
:100C500075726174696F6E2073746F72656420744D
:100C60006F20454550524F4D2E00436F6E666967A9
:100C700075726174696F6E206C6F61646564206663
:100C8000726F6D20454550524F4D2E00436F6E667A
:100C9000696775726174696F6E207265736574201F
:100CA000746F2064656661756C74732E0050726F8A
:100CB000746F636F6C2076657273696F6E20636802
:100CC000616E6765642C20757067726164696E6718
:100CD000004550523A3020004550523A31200045EC
:100CE00050523A3220004550523A3320004261754A
:100CF0006472617465004C616E677561676500467A
:100D0000696C616D656E74207072696E74656420C3
:100D10005B6D5D005072696E746572206163746909
:100D20007665205B735D004D61782E20696E61638E
:100D3000746976652074696D65205B6D732C303D38
:100D40006F66665D0053746F7020737465707065B4
:100D50007220616674657220696E61637469766978
:100D60007479205B6D732C303D6F66665D00582092
:100D70006D696E20706F73205B6D6D5D0059206D25
:100D8000696E20706F73205B6D6D5D005A206D6918
:100D90006E20706F73205B6D6D5D0058206D617803
:100DA000206C656E677468205B6D6D5D0059206D09
:100DB0006178206C656E677468205B6D6D5D005AAC
:100DC000206D6178206C656E677468205B6D6D5D69
:100DD0000058206261636B6C617368205B6D6D5DB0
:100DE0000059206261636B6C617368205B6D6D5D9F
:100DF000005A206261636B6C617368205B6D6D5D8E
:100E0000004D61782E206A65726B205B6D6D2F73CB
:100E10005D00416363656C65726174696F6E206625
:100E20006163746F7220617420746F70205B252C75
:100E30003130303D6C696B6520626F74746F6D5D2D
:100E4000004D61782E205A2D6A65726B205B6D6DA6
:100E50002F735D00582D617869732073746570730A
:100E600020706572206D6D00592D61786973207353
:100E70007465707320706572206D6D005A2D6178F5
:100E8000697320737465707320706572206D6D00D6
:100E9000582D61786973206D61782E2066656564D0
:100EA00072617465205B6D6D2F735D00592D6178E3
:100EB0006973206D61782E20666565647261746562
:100EC000205B6D6D2F735D005A2D61786973206D05
:100ED00061782E206665656472617465205B6D6D56
:100EE0002F735D00582D6178697320686F6D696E8E
:100EF00067206665656472617465205B6D6D2F7334
:100F00005D00592D6178697320686F6D696E672087
:100F10006665656472617465205B6D6D2F735D003D
:100F20005A2D6178697320686F6D696E67206665F8
:100F3000656472617465205B6D6D2F735D00582D63
:100F40006178697320616363656C65726174696F50
:100F50006E205B6D6D2F735E325D00592D61786977
:100F60007320616363656C65726174696F6E205B89
:100F70006D6D2F735E325D005A2D6178697320614B
:100F80006363656C65726174696F6E205B6D6D2F54
:100F9000735E325D00582D617869732074726176DA
:100FA000656C20616363656C65726174696F6E2046
:100FB0005B6D6D2F735E325D00592D617869732012
:100FC00074726176656C20616363656C65726174CF
:100FD000696F6E205B6D6D2F735E325D005A2D61FF
:100FE0007869732074726176656C20616363656CE7
:100FF00065726174696F6E205B6D6D2F735E325D1B
:10100000004F5053206F7065726174696F6E206D70
:101010006F6465205B303D4F66662C313D436C61EB
:10102000737369632C323D466173745D004F505396
:10103000206D6F7665206166746572207825207258
:10104000657472616374205B255D004F5053206DA1
:10105000696E2E2064697374616E636520666F72B9
:101060002066696C2E2072657472616374696F6E9C
:10107000205B6D6D5D004F5053207265747261632B
:1010800074696F6E206C656E677468205B6D6D5D52
:10109000004F50532072657472616374696F6E20E3
:1010A0006261636B6C617368205B6D6D5D004265AE
:1010B000642048656174204D616E61676572205BD4
:1010C000302D335D004265642050494420647269CC
:1010D0007665206D61780042656420504944206443
:1010E00072697665206D696E0042656420504944DE
:1010F00020502D6761696E0042656420504944208C
:10110000492D6761696E004265642050494420445E
:101110002D6761696E0042656420504944206D610D
:10112000782076616C7565205B302D3235355D0039
:10113000737465707320706572206D6D006D6178D9
:101140002E206665656472617465205B6D6D2F731A
:101150005D007374617274206665656472617465A4
:10116000205B6D6D2F735D00616363656C657261FB
:1011700074696F6E205B6D6D2F735E325D00686504
:101180006174206D616E61676572205B302D335D27
:1011900000504944206472697665206D6178005082
:1011A0004944206472697665206D696E0050494437
:1011B00020502D6761696E2F646561642D74696DBF
:1011C000650048656174657220646561642D7469A9
:1011D0006D65006E6120666F7220646561642074C5
:1011E000696D65206374726C0050494420492D6715
:1011F00061696E0050494420442D6761696E00505A
:101200004944206D61782076616C7565205B302DD6
:101210003235355D00582D6F6666736574205B73DB
:10122000746570735D00592D6F6666736574205B1D
:1012300073746570735D005A2D6F666673657420F4
:101240005B73746570735D0074656D702E207374CC
:101250006162696C697A652074696D65205B735D94
:101260000074656D702E20666F72207265747261F5
:101270006374696F6E207768656E20686561746954
:101280006E67205B435D0064697374616E63652003
:10129000746F2072657472616374207768656E2064
:1012A00068656174696E67205B6D6D5D006578745B
:1012B000727564657220636F6F6C65722073706500
:1012C0006564205B302D3235355D00616476616E7A
:1012D0006365204B205B303D6F66665D0061647620
:1012E000616E6365204C205B303D6F66665D005328
:1012F0004420696E6974206661696C006572726F62
:10130000722077726974696E6720746F2066696CE9
:101310006500426567696E2066696C65206C69735B
:101320007400456E642066696C65206C6973740096
:1013300046696C65206F70656E65643A002053697C
:101340007A653A0046696C652073656C65637465FF
:10135000640066696C652E6F70656E206661696CED
:101360006564005344207072696E74696E67206210
:1013700079746520004E6F74205344207072696E3A
:1013800074696E67006F70656E206661696C656474
:101390002C2046696C653A200057726974696E6743
:1013A00020746F2066696C653A2000446F6E65207A
:1013B000736176696E672066696C652E0046696C9C
:1013C000652064656C657465640044656C6574696A
:1013D0006F6E206661696C65640044697265637450
:1013E0006F72792063726561746564004372656130
:1013F00074696F6E206661696C6564005344206592
:1014000072726F72436F64653A0048656174657209
:10141000206465636F75706C6564004F6E6520684D
:101420006561746572207365656D73206465636FB3
:1014300075706C65642066726F6D20746865726D7E
:101440006973746F72202D2064697361626C696EB8
:101450006720616C6C20666F7220736166657479B9
:1014600021005A20636F7272656374696F6E206524
:101470006E61626C6564005A20636F72726563749A
:10148000696F6E2064697361626C656400456E61AA
:10149000626C652072657472616374696F6E20633B
:1014A0006F6E76657273696F6E205B302F315D00F1
:1014B00052657472616374696F6E206C656E6774D7
:1014C00068205B6D6D5D0052657472616374696F55
:1014D0006E206C656E6774682065787472756465DB
:1014E0007220737769746368205B6D6D5D0052656F
:1014F0007472616374696F6E207370656564205BDC
:101500006D6D2F735D0052657472616374696F6EE7
:10151000207A2D6C696674205B6D6D5D0045787472
:10152000726120657874727573696F6E206F6E20BA
:10153000756E646F2072657472616374205B6D6D8B
:101540005D00457874726120657874727573696F97
:101550006E206F6E20756E646F2073776974636898
:101560002072657472616374205B6D6D5D005265FD
:101570007472616374696F6E20756E646F2073702E
:1015800065656400436F6E6669673A0045787472FA
:101590002E005072696E7465724D6F64653A4646EE
:1015A00046005072696E7465724D6F64653A4C61A5
:1015B000736572005072696E7465724D6F64653A3E
:1015C000434E43000D0E206D61726B6564206465AF
:1015D000636F75706C656400206D61726B6564206B
:1015E000646566656374004F746865723A001C1523
:1015F0001C141C00002243141F1F132EF81668171A
:10160000BC172C187C1800000000EC187419801A04
:10161000D01A4C1BC81B141C53656C656374457849
:101620007472756465723A0044697361626C696EC4
:101630006720616C6C2068656174657273206475E5
:101640006520746F206465746563746564207365D8
:101650006E736F72206465666563742E0020646526
:10166000672E204300206D656173757265642000EC
:101670004572726F723A436F756C64206E6F74209E
:10168000686F6C642074656D7065726174757265E5
:101690002000206D73002061667465722000457221
:1016A000726F723A54656D702E2072616973656451
:1016B00020746F20736C6F772E2052697365203D04
:1016C0002000486561746564206265642065786304
:1016D0006565646564206D61782074656D70657200
:1016E000617475726521004D31313720457874720F
:1016F00075646572203100000000A00F5C00600975
:10170000690010097900C0088C007008A200200848
:10171000BD00D007DE008007050130073401E00678
:101720006D019006B20140060702F0056D02A005AA
:10173000E80250057B0300052B04B004F8046004A4
:10174000EB06C003350920037F0B8002650DE00125
:10175000B00E40011D0FF000480FC8006C0FA00034
:10176000ED0F60FFFE0F48FE0400801AD8009808B5
:10177000AC012007800250065403C8052804580510
:10178000FC040005D005B004A4066804780728040A
:101790004C08E8032009B003F4097003C80A3803B1
:1017A0009C0BF802700CB002440D6802180E08027F
:1017B000EC0E8801C00F8800F00F00000400001B31
:1017C00054006009640010097400C00884007008A7
:1017D0009C002008B800D007D8008007000130071F
:1017E0002C01E00668019006AC0140060002F005FD
:1017F0006802A005E0025005740300052404B0044B
:10180000F0046004DC051004E406C003040870035F
:1018100030092003780B8002600DE001A80E400122
:10182000680FA000C00F0000E80F60FF0400700DFB
:10183000D8004804AC0158038002D8025403800247
:1018400028043802FC040002D005C801A40698014F
:10185000780770014C08480120091801F409F000CC
:10186000C80AC8009C0BA000700C7000440D380022
:10187000180E0000EC0EA8FFC00FE8FE0400001BCD
:1018800054006009640010097400C00884007008E6
:101890009C002008B800D007D8008007000130075E
:1018A0002C01E00668019006AC0140060002F0053C
:1018B0006802A005E0025005740300052404B0048A
:1018C000F0046004DC051004E406C003040870039F
:1018D00030092003780B8002600DE001A80E400162
:1018E000680FA000C00F0000E80F60FF0000401F5D
:1018F000450060094F0010095C00C0086B007008CB
:101900007D0020089200D007AC008007CC00300793
:10191000DE00E006230190065E014006A601F00508
:10192000FF01A0056D025005F30200059603B00407
:101930005A046004400510044806C0036E07700393
:10194000A8082003EB09D002230B8002410C3002CF
:10195000390DE001040E9001A20E4001170FF000B6
:10196000690FA000A20F5000C60F0000DD0FB0FFEE
:10197000EB0F60FF0400681D4C00500B94005809E9
:10198000DC0050082401A8076C012807B401C00638
:10199000FC017006440228068C02F005D402B8054A
:1019A0001C03880564035805AC033005F4031005D7
:1019B0003C04E8048404C804CC04A804140590047E
:1019C0005C057004A4055804EC05380434062004B2
:1019D0007C060804C406F0030C07D8035407C803A8
:1019E0009C07B003E40798032C0880037408700375
:1019F000BC085803040948034C0930039409180330
:101A0000DC090803240AF0026C0AE002B40AC802E6
:101A1000FC0AB002440BA0028C0B8802D40B7002AB
:101A20001C0C5802640C4002AC0C2802F40C10028E
:101A30003C0DF001840DD801CC0DB801140E9801B5
:101A40005C0E7001A40E4801EC0E1801340FD80092
:101A50007C0F8800C40F0800FC0F0000000000008D
:101A60000000000000000000000000000000000076
:101A70000000000000000000000000000000000066
:101A800004000016D800C006AC0178058002C0042E
:101A9000540348042804E803FC049803D0055003C9
:101AA000A40618037807D8024C08A802200970027F
:101AB000F4093802C80A08029C0BD001700C90018E
:101AC000440D5001180EF800EC0E8800C00F000005
:101AD0000400401D900060091C01B007A801D00659
:101AE00034023806C002C8054C036805D80318053F
:101AF0006404D804F00498047C05600408063004EB
:101B0000940600042007D003AC07A803380880031C
:101B1000C408580350093003DC090803680AE002CE
:101B2000F40AB802800B88020C0C6002980C300298
:101B3000240DF801B00DC0013C0E8001C80E30012B
:101B4000540FB800B40F2800E00F00000400081D77
:101B5000900058091C01B007A801C80634023006DD
:101B6000C002C0054C036805D80318056404D004FE
:101B7000F00498047C056004080630049406000410
:101B80002007D003AC07A80338088003C408580313
:101B900050093003DC090803680AD802F40AB002CD
:101BA000800B88020C0C6002980C3002240DF801A6
:101BB000B00DC0013C0E8001C80E3001540FB800BA
:101BC000B40F2800E00F0000000000008C030800A4
:101BD000AE035000D603A000F703F0001804400144
:101BE000380490015904E0017A0430029A0480021A
:101BF000BB04D002FC0470032605C0038606300730
:101C00009709A00F750D201C520E401F1F0F602258
:101C1000FF0F803E0400501D7C00D009A400100975
:101C2000CC008008F40010081C01B80744016807C4
:101C30006C0128079401E806BC01B806E401880697
:101C40000C026006340238065C0218068402F005B5
:101C5000AC02D805D402B805FC029805240380051F
:101C600074035005C4032805140400056404D80453
:101C7000B404B0042C058004A40558041C062804F0
:101C8000940600040C07D803AC07A8034C0878039B
:101C9000EC0848038C092003A40AD0021C0BA802FC
:101CA000AC0C2802FC0C0802C40DB801140E9801FB
:101CB000B40E38012C0FE000540FB8007C0F8800E0
:101CC000A40F4800F40F28FFFC0FC0F9696E666F7F
:101CD0003A436F6E74696E75652066726F6D20662B
:101CE0006174616C207374617465000020507269C6
:101CF0006E7465722073746F7070656420616E64B9
:101D000020686561746572732064697361626C65D3
:101D1000642064756520746F20746869732065722F
:101D2000726F722E20466978206572726F72206120
:101D30006E642072657374617274207769746820B0
:101D40004D3939392E005344206572726F72206606
:101D500069786564005344206572726F722064690B
:101D600064206E6F74207265636F76657221005314
:101D7000442052656164204572726F720042696E40
:101D80006172793A00436F6D6D616E64427566668B
:101D9000657200627573793A70726F636573736907
:101DA0006E6700627573793A68656174696E670081
:101DB000627573793A70617573656420666F72201D
:101DC0007573657220696E746572616374696F6E94
:101DD0000000000000000000000000000000000003
:101DE0000024F403D950C38EB1C2A23D96828B3534
:101DF00082127AE372816CCB66A861015DC758EBF1
:101E0000546151204E1E4B5648C14559431A410159
:101E10003F093D2F3B7139CD374036C93465331406
:101E200032D430A32F802E6B2D632C672B752A8E16
:101E300029B028DC2710274B268F25D9242B248274
:101E400023E0224322AC211A218D200420801F0090
:101E50001F841E0C1E971D261DB81C4E1CE61B82DF
:101E60001B201BC11A641A0A1AB2195D190A19B982
:101E7000186A181C18D11788174017FA16B5167368
:101E8000163116F115B31576153A150015C7148FCE
:101E90001458142214EE13BA13881356132513F68C
:101EA00012C71299126C1240121512EB11C111983F
:101EB00011701148112111FB10D610B1108D10694D
:101EC00010461024100210E10FC00FA00F800F6108
:101ED0000F420F230F060FE80ECB0EAF0E930E77B7
:101EE0000E5C0E410E270E0D0EF30DDA0DC10DA87E
:101EF0000D900D780D600D490D320D1B0D050DEF88
:101F00000CD90CC30CAE0C990C850C700C5C0C48F5
:101F10000C350C210C0E0CFB0BE80BD60BC40BB2D2
:101F20000BA00B8E0B7D0B6B0B5A0B4A0B390B293D
:101F30000B180B080BF80AE90AD90ACA0ABB0AAC43
:101F40000A9D0A8E0A800A710A630A550A470A39ED
:101F50000A2C0A1E0A110A040AF709EA09DD09D047
:101F600009C409B709AB099F09920987097B096F61
:101F700009630958094C09410936092B092009153B
:101F8000090A090009F508EB08E008D608CC08C2E0
:101F900008B808AE08A4089A08900887087D087455
:101FA000086B08610858084F0846083D0834082C9B
:101FB0000823081A08120809080108F807F007E8BA
:101FC00007E007D807D007C807C007B807B007A8B9
:101FD00007A1070000420FA1071605D0030D038BD0
:101FE000022E02E801B2018601630145012C0117AE
:101FF000010401F400205A002059004733332058CF
:1020000000002C2000446973746F7274696F6E2035
:10201000636F7272656374696F6E206D617472694B
:10202000783A0053746F7070696E672064697374D6
:102030006F7274696F6E206D6561737572656D6521
:102040006E742064756520746F206572726F727390
:102050002E00526573657474696E67205A20636F31
:102060007272656374696F6E007A446973746F721B
:1020700074696F6E436F7272656374696F6E3A0054
:102080004D617854656D703A004469616D657465A1
:10209000723A00416363656C65726174696F6E3A90
:1020A000004D617853706565643A004A65726B3A19
:1020B000004D617842656454656D703A00507269F4
:1020C0006E746572547970653A43617274657369B0
:1020D000616E005A54726176656C416363656C3A57
:1020E000005954726176656C416363656C3A0058BF
:1020F00054726176656C416363656C3A005A507244
:10210000696E74416363656C3A00595072696E740C
:10211000416363656C3A00585072696E7441636341
:10212000656C3A005A53697A653A005953697A6581
:102130003A005853697A653A005A4D61783A005925
:102140004D61783A00584D61783A005A4D696E3ABF
:1021500000594D696E3A00584D696E3A00526574E7
:1021600072616374696F6E556E646F5370656564F8
:102170003A0052657472616374696F6E556E646F74
:1021800045787472614C6F6E674C656E6774683A1F
:102190000052657472616374696F6E556E646F4549
:1021A000787472614C656E6774683A005265747237
:1021B000616374696F6E5A4C6966743A0052657453
:1021C00072616374696F6E53706565643A0052653D
:1021D0007472616374696F6E4C6F6E674C656E6785
:1021E00074683A0052657472616374696F6E4C650D
:1021F0006E6774683A004A65726B5A3A004B6565BF
:1022000070416C697665496E74657276616C3A00EE
:102210004A65726B58593A005072696E746C696EF7
:102220006543616368653A00454550524F4D3A0039
:102230004175746F6C6576656C3A005A50726F62C6
:10224000653A00436173654C69676874733A00537B
:102250007570706F72744C6F63616C46696C616D00
:10226000656E746368616E67653A00537570706F70
:1022700072744731304731313A005A486F6D6544C6
:1022800069723A0059486F6D654469723A0058485E
:102290006F6D654469723A00536F66747761726559
:1022A000506F7765725377697463683A004C4344A2
:1022B0003A0046616E323A300046616E3A0053444D
:1022C000436172643A004865617465644265643ACA
:1022D000004D6978696E6745787472756465723A05
:1022E000004E756D45787472756465723A00496E7A
:1022F0007075744275666665723A00426175647203
:102300006174653A004E6F2063617365206C696784
:1023100068747300686F6D654178697320004E655D
:10232000656473206C616E67756167652073656CA9
:10233000656374696F6E0044656275674C657665A8
:102340006C3A00656E6473746F7073206869743AD8
:102350002000005344207072696E742073746F7093
:1023600070656420627920757365722E00000053D9
:1023700044206361726420696E73657274656400E1
:10238000534420636172642072656D6F76656400EA
:1023900000002110422063308440A550C660E770E1
:1023A000088129914AA16BB18CC1ADD1CEE1EFF189
:1023B0003112100273325222B5529442F772D66231
:1023C000399318837BB35AA3BDD39CC3FFF3DEE3D9
:1023D0006224433420040114E664C774A444855481
:1023E0006AA54BB528850995EEE5CFF5ACC58DD529
:1023F0005336722611163006D776F6669556B446D1
:102400005BB77AA719973887DFF7FEE79DD7BCC778
:10241000C448E5588668A778400861180228233820
:10242000CCC9EDD98EE9AFF9488969990AA92BB9C8
:10243000F55AD44AB77A966A711A500A333A122A70
:10244000FDDBDCCBBFFB9EEB799B588B3BBB1AAB18
:10245000A66C877CE44CC55C222C033C600C411CC0
:10246000AEED8FFDECCDCDDD2AAD0BBD688D499D68
:10247000977EB66ED55EF44E133E322E511E700E10
:102480009FFFBEEFDDDFFCCF1BBF3AAF599F788FB8
:102490008891A981CAB1EBA10CD12DC14EF16FE198
:1024A0008010A100C230E3200450254046706760D0
:1024B000B9839893FBA3DAB33DC31CD37FE35EF3E8
:1024C000B1029012F322D232354214527762567220
:1024D000EAB5CBA5A89589856EF54FE52CD50DC538
:1024E000E234C324A0148104667447642454054470
:1024F000DBA7FAB79987B8975FE77EF71DC73CD788
:10250000D326F2369106B0165766767615463456BF
:102510004CD96DC90EF92FE9C899E9898AB9ABA9D7
:102520004458654806782768C018E1088238A3280F
:102530007DCB5CDB3FEB1EFBF98BD89BBBAB9ABB27
:10254000754A545A376A167AF10AD01AB32A923A5F
:102550002EFD0FED6CDD4DCDAABD8BADE89DC98D77
:10256000267C076C645C454CA23C832CE01CC10CAF
:102570001FEF3EFF5DCF7CDF9BAFBABFD98FF89FC7
:10258000176E367E554E745E932EB23ED10EF01EFF
:102590007C3C3E5E2B3D3F2F5B5D3B2C2A225C004A
:1025A0004E6F206572726F7220666F756E642E00BA
:1025B00043616E2774206F70656E20726F6F742098
:1025C0006469726563746F72792E00496E76616C0E
:1025D000696420666F726D61742C207265666F721B
:1025E0006D61742053442E004E6F20636172642C21
:1025F0002077726F6E6720636869702073656C6501
:1026000063742070696E2C206F72205350492070C3
:10261000726F626C656D3F0043616E277420616369
:102620006365737320534420636172642E20446F8A
:10263000206E6F74207265666F726D61742E00007B
:1026400000FF00000000010100000000FF00000387
:1026500010270200D4280310270200D82801000008
:102660000100DC280200000600DE2803ED03040060
:10267000EA2803EE030400F22803EF030400FA281B
:1026800003FA030400022903FB0304000A2903FCE4
:1026900003040012290200000B001A2902000006A0
:1026A0000030290200000A003C290588130400506C
:1026B000295265717565737450617573653A006967
:1026C0006D706F7274616E743A2046696C616D65ED
:1026D0006E74206368616E676520726571756972DA
:1026E0006564210055495F414354494F4E5F484F4F
:1026F0004D455F5A200055495F414354494F4E5F55
:10270000484F4D455F59200055495F414354494F5B
:102710004E5F484F4D455F58200055495F41435437
:10272000494F4E5F484F4D45414C4C20004A616D2A
:1027300020636F6E74726F6C2064697361626C6584
:10274000643A008025000040380000004B00008003
:1027500070000000960000C0DA000000E1000000F8
:102760002C010008B2010000C2010000F4010000C9
:1027700084030090D0030000E80300000807002055
:10278000A1070000100E0040420F0060E316000099
:1027900000000055495F414354494F4E5F45504F3B
:1027A000534954494F4E200055495F414354494FC6
:1027B0004E5F5A504F534954494F4E5F4641535410
:1027C000200055495F414354494F4E5F59504F5384
:1027D0004954494F4E5F46415354200055495F418B
:1027E0004354494F4E5F58504F534954494F4E5FE1
:1027F00046415354200055495F414354494F4E5F71
:102800005A504F534954494F4E200055495F414358
:1028100054494F4E5F59504F534954494F4E200031
:1028200055495F414354494F4E5F58504F534954A7
:10283000494F4E2000020000090058290000026A9A
:10284000290000A200712978297F298629820000A9
:1028500001008D29030004002064656320002064CA
:10286000656620000000003FCDCC4C3D0AD7A33B5D
:102870006F12033A526570657469657220302E39A3
:10288000322E390053656C66204D616465004D79C8
:102890005072696E7465720000401454040E150481
:1028A00004041C00040A040000000000001F1F1F95
:1028B0001F1F0000001F1111111F0000040A0A0A47
:1028C0000E1F1F0E001C1F11111F0000110A041102
:1028D000040A11118F299829A129AA29B329B329FA
:1028E000BC29C529CE29D729E029E929F229FB29C4
:1028F000042A0D2A162A1F2A282A312A3A2A432A6C
:102900004C2A552A5E2A672A702A792A822A8B2A1B
:10291000942A9D2AA62AAF2AB82AB329C12ACA2AEC
:10292000D32ADC2AE52AEE2AF72A002B092B122BC0
:10293000B3291B2B242B2D2B362B3F2BB329C12A3C
:10294000482B512B5A2B632B6C2B752B362B7E2B44
:10295000872B902B992BA22BB329AB2BBC29B42B03
:10296000BD2BC62BCF2BD82BE12B0200000800EA91
:102970002B0000000400FA2B0000000400022C00D1
:10298000000004000A2C0000000400122C1A2C0085
:10299000000000000000A50000000000000000A6EC
:1029A0000000000000000000A70000000000000080
:1029B00000A800000003E80300000A00000003F57F
:1029C0000301024800000003F6030204490000006E
:1029D00003F70304004A00000002232C0200C90090
:1029E000000003F40301024D00000000000000009D
:1029F0005700000000000000005800000000000028
:102A000000005900000000000000005A0000000013
:102A1000000000005B00000000000000005C0000FF
:102A20000000000000005D00000000000000005EEB
:102A300000000000000000005F0000000000000037
:102A400000600000000000000000610000000000C5
:102A500000000062000000000000000063000000B1
:102A6000000000000064000000000000000065009D
:102A700000000000000000660000000000000000F0
:102A80006700000000000000006800000000000077
:102A900000006900000000000000006A0000000063
:102AA000000000006B00000000000000006C00004F
:102AB0000000000000006D00000000000000006E3B
:102AC00000000003FD03001013000000041F0400B9
:102AD00000B00000000448040000B10000000388BA
:102AE000130000CB000000033704000017000000B3
:102AF00003470400001800000003380400001A0017
:102B0000000003310400101B000000034304001008
:102B10001C0000000336040000C60000000461042D
:102B200000002400000004620400002500000003EF
:102B30003A04000028000000022A2C0000230000B4
:102B40000003440400002E00000003FE03001014E4
:102B500000000003FF030010150000000300040044
:102B60001016000000026B2600001D00000002721B
:102B70002600001F0000000279260000210000004E
:102B800002312C0000060100000000000000CC0013
:102B900000000000000000CD000000000000000068
:102BA000CE0000000000000000CF000000029526CB
:102BB00000000B00000002A32600000E000000022F
:102BC0009C2600000F00000002382C00007D000051
:102BD00000026426000010000000023F2C000011DB
:102BE00000000002462C00000D00B3294D2C562C8D
:102BF0005F2C682C712C7A2C832C8C2C952C9E2C81
:102C0000A72CB02CB92CC22CCB2CD42CDD2CE62C30
:102C1000EF2CF82C012D0A2D132D1C2D03A42600BA
:102C20000000000200000300242D03F00304002A2A
:102C30002D0200000400322D02000008003A2D028F
:102C4000000006004A2D0200000900562D00000475
:102C50002D040000930000000422042000940000D2
:102C6000000423042000970000000424042000989E
:102C70000000000425042000990000000426042020
:102C8000009A000000042F0400009B0000000000D8
:102C9000000000EB0000000000000000ED0000005C
:102CA0000000000000EE0000000000000000F30043
:102CB00000000000000000570000000000000000BD
:102CC0005B00000000000000005F0000000000004A
:102CD0000000F30000000000000000AC0000000055
:102CE00000000000AF0000000000000000F4000041
:102CF000000000000000F30000000000000000C31E
:102D00000000000000000000F000000000000000D3
:102D100000C40000000000000000F100456E676C78
:102D200069736800682D712D7A2D832D8C2D952D5A
:102D30009E2DB329A72DB02DB92DB329C22DCB2D92
:102D4000D42DDD2DE62DEF2DF82DB329012E0A2EE1
:102D5000132E1C2E252EB3292E2E372E402E492E13
:102D6000522E3C285B2E642E00000100000000C99A
:102D700000000003E80300000400000003542402E4
:102D8000000300000000000000006F0000000000D1
:102D9000000000700000000000000000AB00000018
:102DA0000000000000F200000004B40F0000070162
:102DB000000004B50F00000801000004B60F000079
:102DC0000901000004520400007E000000031A0400
:102DD00008007F000000031B0400008000000003C7
:102DE0001C04000081000000031D0400008200009C
:102DF00000031E0400008300000003B4040000D29E
:102E0000000000037E0400003C000000037F04007B
:102E1000003D00000003800400003E00000003812C
:102E20000400003F00000003820400000A010000CB
:102E3000026D2E00008A00000002742E0000E400E3
:102E40000000027B2E00003900000002822E0000EC
:102E50004E00000002892E00000F0000000306044F
:102E600000003A00000003070400003B00020000DD
:102E70000400902E0200000200982E0200000900BB
:102E80009C2E0200000700AE2E0200001200BC2E95
:102E9000B329E02EE92EF22EB3291A2CB329FB2EEA
:102EA000042F0D2F162F1F2F282F312F3A2FB32924
:102EB000432F4C2F552F5E2F672F702FB329792F5B
:102EC000822F8B2F942F9D2FA62FAF2FB82F4D2CF5
:102ED000562C5F2C682C712C7A2CC12FCA2F832C76
:102EE000000004100400008B00000002D32F00003B
:102EF0008400000002DA2F000087000000040804AC
:102F000000002F000000040904000030000000044D
:102F10000A04000031000000040B0400003300002C
:102F200000040C04000034000000040D040000350F
:102F3000000000040E04000037000000040F04002D
:102F4000003800000004140400004F0000000415C5
:102F500004000050000000041604000051000000AE
:102F60000411040000530000000412040000540087
:102F700000000413040000550000000429040000B0
:102F80008C000000042C0400008D000000042B04C1
:102F900000008E000000042A0400008F00000004DE
:102FA0002E04000090000000044D040000BC00004E
:102FB00000044C040000BB00000004460400009123
:102FC0000000000422044000950000000426044094
:102FD0000096000320040200E12F0358040200E5DC
:102FE0002FE92FF22FFB2F0430000000000000001B
:102FF00085000000000000000086000000000000C6
:103000000000880000000000000000890027300058
:1030100000000000000000000000000000000000B0
:10302000000000000000FF3D324032443248324C84
:10303000324F325B3264326932743284328B329A6C
:10304000329E32AC32B532BE32C632D032DB32E4DE
:1030500032EB32F232F932053311331C332533337C
:103060003343334E335A33653371337C338833976C
:1030700033AA33BD33D033E333F433053416342964
:10308000343C344F345A34663472347E3488349449
:1030900034A034AC34B534C134CD34DA34EA34F944
:1030A00034053511351D35293535354535523561F0
:1030B0003570357F358E359835A335AF35BE35CB78
:1030C00035D635E235EB35F535FF35093611361C89
:1030D00036273632363B364B365B366B366C367CB3
:1030E000368C369C369D36AD36BD36CD36CE36D78F
:1030F00036E736F736F83601371137213722372BC6
:10310000373B374B374C37553764376D377D37860C
:103110003796379F37AF37B837C837D137E137EAF7
:1031200037FA3704381538223830383E384C385999
:10313000386A387A3886389438A438B038B838C500
:1031400038D238DF38EA38F4380239123923392FC7
:103150003939394639563960396A39783986399278
:10316000399F39AC39B539B939C439D539E139E87C
:1031700039F939073A183A263A373A443A4F3A6019
:103180003A713A823A933AA43AB63AC83AD33ADF15
:103190003AE73AF03AF73AFE3A053B183B243B351A
:1031A0003B473B573B683B773B7E3B803B813B8FBC
:1031B0003BA03BA83BB93BC33BCC3BD73BE93BF9EE
:1031C0003B093C183C293C393C483C583C6C3C7C15
:1031D0003C873C973CA83CB53CBD3CC93CDC3CDD55
:1031E0003CE83CF13CF83C083D173D223D293D368A
:1031F0003D3F3D503D613D773D8F3D983D9C3DAF0E
:103200003DB93DCA3DDB3DE73DEB3DF13DFF3D03B3
:103210003E043E0E3E143E1B3E2E3E413E543E6555
:103220003E763E873E9A3EAD3EC03ECE3ED93EE61D
:103230003EF33E063F183F2B3F3E3F513F4F6E004F
:103240004F6666004E2F4100596573004E6F005067
:1032500072696E74696E672E2E2E005072696E74DC
:10326000696E670049646C65004E6F2053442063AB
:10327000617264002A2A2A2A204552524F52202A7B
:103280002A2A2A004261636B200100517569636B31
:103290002073657474696E677300256F6500436FF2
:1032A0006E66696775726174696F6E00506F7369DD
:1032B00074696F6E0045787472756465720053446A
:1032C000206361726400446562756767696E6700B8
:1032D000486F6D652064656C746100486F6D652092
:1032E000616C6C00486F6D65205800486F6D6520FB
:1032F0005900486F6D65205A0050726568656174A9
:1033000020504C4100507265686561742041425301
:10331000004C69676874733A256C6F00436F6F6C7B
:10332000646F776E0053657420746F206F726967E5
:10333000696E0044697361626C65207374657070B6
:103340006572005820706F736974696F6E00582041
:10335000706F732E2066617374005920706F7369EB
:1033600074696F6E005920706F732E2066617374DC
:10337000005A20706F736974696F6E005A20706F05
:10338000732E206661737400457874722E20706FFE
:10339000736974696F6E004265642074656D703A7C
:1033A0002565622F25456202430054656D702E200D
:1033B00031203A2565302F25453002430054656D94
:1033C000702E2032203A2565312F254531024300E9
:1033D00054656D702E2033203A2565322F254532F5
:1033E0000243005475726E20657874722E2031206D
:1033F0006F6666005475726E20657874722E203286
:10340000206F6666005475726E20657874722E2087
:1034100033206F6666002558302053656C656374F1
:1034200020657874722E2031002558312053656C48
:1034300065637420657874722E203200255832201E
:1034400053656C65637420657874722E2033005365
:103450006574204F726967696E005072696E7420DE
:10346000583A256178005072696E7420593A256186
:1034700079005072696E74205A3A25617A00507250
:10348000696E743A25617A004D6F76652058203A4E
:10349000256158004D6F76652059203A2561590005
:1034A0004D6F7665205A203A25615A004D6F76653A
:1034B0003A25615A004A65726B2020203A25616ADC
:1034C000005A2D4A65726B203A25614A00416363B8
:1034D000656C65726174696F6E0053746F726520FC
:1034E000746F20454550524F4D004C6F616420660B
:1034F0002E20454550524F4D004563686F202020D7
:103500003A25646F00496E666F2020203A25646971
:10351000004572726F7273203A25646500447279B7
:103520002072756E3A25646400254F30204F505349
:10353000206F666600254F31204F505320636C6129
:103540007373696300254F32204F505320666173B7
:103550007400526574726163742020203A254F72A2
:10356000004261636B736C2E2020203A254F62006D
:103570004D696E2E6469737420203A254F64004DA6
:103580006F76652061667465723A254F6100416E01
:103590007469206F6F7A65005072696E7420666975
:1035A0006C65005061757365207072696E740043BC
:1035B0006F6E74696E7565207072696E7400556EF9
:1035C0006D6F756E742063617264004D6F756E74FB
:1035D00020636172640044656C6574652066696C83
:1035E00065004665656472617465004D61782058B8
:1035F0003A256678004D617820593A256679004D64
:103600006178205A3A25667A004D61783A25667AC3
:1036100000486F6D6520583A25665800486F6D6503
:1036200020593A25665900486F6D65205A3A25663B
:103630005A00486F6D653A25665A00583A25783029
:10364000206D6D20256478256458004D696E2065D5
:103650006E6473746F703A257378004D61782065DD
:103660006E6473746F703A2573580000593A257868
:1036700031206D6D20256479256459004D696E20D7
:10368000656E6473746F703A257379004D617820AC
:10369000656E6473746F703A25735900005A3A2549
:1036A0007832206D6D2025647A25645A004D696E4C
:1036B00020656E6473746F703A25737A004D61787B
:1036C00020656E6473746F703A25735A0000583A1F
:1036D000257830206D6D004D696E20656E647374C1
:1036E0006F703A257378004D617820656E6473744D
:1036F0006F703A2573580000593A257831206D6D66
:10370000004D696E20656E6473746F703A2573792D
:10371000004D617820656E6473746F703A2573593B
:1037200000005A3A257832206D6D004D696E206593
:103730006E6473746F703A25737A004D61782065FA
:103740006E6473746F703A25735A0000453A257899
:1037500033206D6D003120636C69636B203D203137
:10376000206D6D00583A257830206D6D004D696EE2
:103770003A257378204D61783A25735800593A25D7
:103780007831206D6D004D696E3A257379204D6159
:10379000783A257359005A3A257832206D6D004DDC
:1037A000696E3A25737A204D61783A25735A00582C
:1037B0003A257830206D6D004D696E3A257378207A
:1037C0004D61783A25735800593A257831206D6D4E
:1037D000004D696E3A257379204D61783A25735909
:1037E000005A3A257832206D6D004D696E3A257386
:1037F0007A204D61783A25735A0046616E207370C5
:103800006565640046616E2073706565643A25469F
:1038100073252525005475726E2066616E204F66F3
:1038200066005365742066616E20323525252500BB
:103830005365742066616E2035302525250053655B
:10384000742066616E203735252525005365742068
:1038500066616E2066756C6C00537465707065727D
:1038600020696E616374697665004469732E206116
:10387000667465723A20256973005B6D696E5D2020
:10388000303D4F6666004D61782E20696E6163742D
:10389000697665004469732E2061667465723A200A
:1038A000256970005B6D696E5D20303D4F66660076
:1038B00047656E6572616C00426175647261746522
:1038C0003A256F630053746570732F4D4D3A25533D
:1038D000650053746172742046523A255866004D53
:1038E00061782046523A25584600416363656C3A38
:1038F00025584100537461622E54696D653A25580C
:103900007700416476616E6365206C696E3A255874
:103910006C00416476616E636520717561643A255F
:10392000586100436F6E74726F6C3A25586800508E
:10393000494420503A255870004465616474696DAB
:10394000653A25587000436F6E74726F6C20505743
:103950004D3A25584D0050494420493A25586900B0
:1039600050494420443A25586400447269766520E1
:103970004D696E3A25586D004472697665204D6137
:10398000783A25584D00504944204D61783A2558E1
:103990004400582D4F66667365743A25587800596F
:1039A0002D4F66667365743A2558790042616E67DB
:1039B00042616E670050494400416374696F6E3A1A
:1039C000256C610048656174696E67206578747262
:1039D000756465720048656174696E67206265642C
:1039E000004B696C6C65640053746570706572207F
:1039F00064697361626C656400436F6E66696775C4
:103A0000726174696F6E0073746F72656420696EA1
:103A100020454550524F4D00436F6E666967757281
:103A20006174696F6E006C6F6164656420662E203E
:103A3000454550524F4D0055706C6F6164696E671B
:103A40002E2E2E004275666665723A256F42002062
:103A5000453A2565632F25456302437E256F430064
:103A600045313A2565302F25453002437E256F309C
:103A70000045323A2565312F25453102437E256FB9
:103A8000310045333A2565322F25453202437E25E4
:103A90006F320020423A2565622F25456202437E3F
:103AA000256F62005370656564206D756C2E3A2534
:103AB0006F6D25252500466C6F77206D756C2E2067
:103AC0003A256F662525250053686F77206D65615F
:103AD000732E005265736574206D6561732E0053FB
:103AE0006574205A3D30005A2063616C69622E0073
:103AF0005365742050310053657420503200536573
:103B0000742050330043616C63756C617465206C84
:103B10006576656C696E67004C6576656C206465DA
:103B20006C746100576169742074656D702E202576
:103B300058540243005761697420726574722E3ABA
:103B4000255855206D6D00534420636172642072C6
:103B5000656D6F766564005344206361726420690B
:103B60006E736572746564005072696E746572205C
:103B700072656164792E00206461797320003A00D7
:103B8000005072696E74696E672074696D650046D5
:103B9000696C616D656E74207072696E7465640025
:103BA0007072696E7465640041545820706F776557
:103BB00072206F6E2F6F66660044656164207469C1
:103BC0006D6500536C6F7742616E670053746F7060
:103BD000205072696E74005A206261627973746554
:103BE000702E3A256F596D6D004368616E676520D0
:103BF00066696C616D656E74004368616E6765200F
:103C000066696C616D656E7400526F7461746520D5
:103C1000746F206D6F76650066696C616D656E749A
:103C20002075702F646F776E00436C69636B20772B
:103C300068656E20646F6E65004175746F6C6576A3
:103C4000656C3A20256C6C00536572766F20706F3E
:103C5000732E3A20256F530049676E6F7265204DB1
:103C600031303620636D642025466900436C6963FA
:103C70006B20746F2072656865617400657874727A
:103C800075646572732E005761697420666F7220C7
:103C90007461726765740074656D706572617475C6
:103CA000726573202E2E2E004578747275646572CD
:103CB000206A616D005374616E64627900426564CC
:103CC00020636F6174696E670042656420636F6191
:103CD00074696E672073657420746F00004E6F20E6
:103CE000636F6174696E67004275696C6454616BDF
:103CF000004B6170746F6E00426C7565207061706E
:103D00006572207461706500477265656E2050456C
:103D100054207461706500476C7565207374696325
:103D20006B00437573746F6D00437573746F6D3AF8
:103D30002542436D6D004C616E6775616765000AD1
:103D4000202565302F254530B020583A25783000A1
:103D50000E202565622F254562B020593A2578311D
:103D600000466C6F773AFD20256F662525252020BB
:103D7000205A3A257832004D756C3A20256F6D2512
:103D8000252520FD202020453A202578346D00424D
:103D900075663A20256F4200256F7300052565631F
:103DA0002F25456302422565422F254562020042C8
:103DB0002565422F25456202005A3A257832202097
:103DC000427566203A20256F42004D756C3A2025D9
:103DD0006F6D202020453A25783400583A257830F8
:103DE00020593A2578310025557400255566206DF7
:103DF00000255566206D207072696E74656400251B
:103E00006F730000052565632F25456302000525B6
:103E100065630200202542436D6D0054656D702E70
:103E20002034203A2565332F25453302430054655D
:103E30006D702E2035203A2565342F2545340243F8
:103E40000054656D702E2036203A2565352F2545A6
:103E5000350243005475726E20657874722E2034DA
:103E6000206F6666005475726E20657874722E201D
:103E700035206F6666005475726E20657874722EF8
:103E80002036206F6666002558332053656C6563C5
:103E90007420657874722E203400255834205365C0
:103EA0006C65637420657874722E20350025583552
:103EB0002053656C65637420657874722E2036001B
:103EC000254430204E6F20636F7069657300254470
:103ED00031203120636F7079002544322032206315
:103EE0006F7069657300254433203320636F7069F8
:103EF0006573005A2D70726F626520686569676826
:103F0000743A257A6800536574207072696E742063
:103F10006F666673657473005365742058206F660E
:103F2000667365743A2554306D6D0053657420597D
:103F3000206F66667365743A2554316D6D00536564
:103F400074205A206F66667365743A2554326D6D1D
:103F500000456E6453746F703A2564700000002150
:103F600000240027002A002D00300033000101004A
:103F700000040107010A0100002200250028002B8F
:103F8000002E003100340002010000050108010B81
:103F900001000020002300260029002C002F003201
:103FA00000000100000301060109010505050507E0
:103FB0000508080808020202020A0A0808040404A4
:103FC00004010101010101010103030303030303D0
:103FD00003040707070C0C0C0C0C0C0C0C0202025F
:103FE0000206060606060606060B0B0B0B0B0B0B52
:103FF0000B010210202008081020401020408002F1
:10400000010201080402010102040810204080801E
:1040100040201008040201800402018040201008A2
:10402000040201080402010102040810204080017A
:10403000020408102040800000090A02080B0C0D41
:10404000070603040100000000000000000000005B
:104050000000000000000000000000000000000060
:1040600000000011100F0000000000000000000020
:104070000000000000000000000000000002494EA7
:1040800046494E4954594E414ECDCCCC3D0AD723DA
:104090003C17B7D13877CC2B329595E6241FB14F1A
:1040A0000A000020410000C84200401C4620BCBE5F
:1040B0004CCA1B0E5AAEC59D74000D94D714B9831B
:1040C00089A915C4D1E611241FBECFEFD1E2DEBF0E
:1040D000CDBF00E00CBF13E0A0E0B2E0E2EAFBE3FA
:1040E00002E00BBF02C007900D92A63BB107D9F7C3
:1040F0001BBE12E1A6EBB3E001C01D92AA38B107C6
:10410000E1F710E4C6ECD0E404C02297FE010F945E
:10411000811DCE3BD107C9F70F94C8140D94CF1D54
:104120000C940000A0E0B0E0E8E9F0E20D949E1DE0
:10413000EC015B016115710519F0FB01918380832E
:10414000F9908F2D90E00F94851D892BC9F7FDE222
:10415000FF1621F4F990EE24E39405C02BE2F21649
:1041600009F4F990EE248E0101501040C8016EE769
:1041700070E443E050E062D2892BF9F48E010E5FC7
:104180001F4FC80161E870E445E050E057D2892B29
:1041900019F48E01095F1F4FA114B10419F0F50144
:1041A00011830083E0FC04C070E090E080E813C05D
:1041B00070E090E080E86FEF07C1C80166E870E446
:1041C00043E050E03BD2892B69F4A114B10429F4F7
:1041D00070E090E080EC6FE7F7C02296F501D183A4
:1041E000C083F6CF8824992440E050E060E070E07E
:1041F000EF2DE053EA30A0F5F2E0EF2A8E2D90E0AB
:104200009C0128703070E2FE06C0232B79F50894DB
:10421000811C911C2BC0232B19F008948108910854
:10422000DB01CA0112E0880F991FAA1FBB1F1A9554
:10423000D1F7480F591F6A1F7B1F440F551F661F78
:10424000771F4E0F511D611D711D483929E9520715
:1042500029E9620729E1720748F084E0E82A06C0EC
:10426000EE3F31F4E3FC39C098E0E92AF990C0CF81
:10427000E53311F0E53189F529912D3219F4E0E1AA
:10428000EE2A05C02B3219F081E090E003C029919D
:1042900082E090E0E22FE053EA3018F0C81BD90B1F
:1042A0001CC020E030E0FCE020383F075CF4C9018E
:1042B000880F991F880F991F280F391F220F331F4E
:1042C0002E0F311DE991E053EA3068F3E4FE03C09C
:1042D000309521953F4F820E931ECE2CDD24E1FEBA
:1042E00007C0A114B10421F02197F501D183C08347
:1042F000CB01BA010F94FD197B018C01F3E0CF22B1
:10430000DD2423E0C216D10421F417FB109517F920
:10431000109557016801C801B70120E030E040E086
:1043200050E00F945D19882309F44AC097FE0DC030
:104330002DE9E22E20E4F22E90948194910893943A
:10434000C0E2D0E000E010E012C095EBE92E90E46E
:10435000F92EF6CFF7012591359145915491C6017B
:10436000B5010F940D1C5B016C018C1A9D0A8C1613
:104370009D0684F7D595C7950F5F1F4F0630110531
:1043800029F08CEF9FEFE80EF91EF1CFC501D601A1
:104390007C018D018C2D880F8D2D881F8F3F51F052
:1043A000C601B50120E030E040E050E00F945D1917
:1043B000882331F482E290E09093891280938812EE
:1043C0007E2D9F2D802F612F272F392F482F562F7D
:1043D000B901CA01CDB7DEB7ECE00D94BA1D2F923A
:1043E0003F925F926F927F928F929F92AF92BF9215
:1043F000CF92DF92EF92FF920F931F93CF93DF93B1
:104400008C011B01EA016115710519F0FB01918313
:104410008083209749F0CE010297839728F020E00F
:1044200030E040E050E0F6C0F801A1908F018A2D05
:1044300090E00F94851D892BB9F7FDE2AF1631F49A
:10444000F801A1908F015524539407C0FBE2AF16E9
:1044500019F4F801A1908F015524209719F0C0316B
:10446000D105C1F4F0E3AF1679F4F8018081883703
:1044700011F0883549F4F801A1800E5F1F4FF2E07A
:104480005F2AC0E1D0E006C0209721F480E3A8169F
:10449000E9F427C0C830D10531F1C930D10524F481
:1044A000C230D10531F50CC0CA30D10589F0C03118
:1044B000D105F9F4C12CD12CE12CB8E0FB2E28C099
:1044C000C12CD12CE12CA0E4FA2E22C0CAE0D0E00D
:1044D000FCECCF2EFCECDF2EFCECEF2EFCE0FF2EF4
:1044E00017C0C8E0D0E0C12CD12CE12CE0E1FE2EB9
:1044F0000FC09E01442737FD4095542F60E070E0C7
:1045000080E090E80F94361DC901DA016C017D014D
:1045100020E030E040E050E060E03E01882477FC9D
:104520008094982C70EDB72EBA0CE9E0EB1570F47E
:104530008A2D81548A3118F499ECB92E06C08A2D3F
:1045400081568A3150F589EAB82EBA0C8B2D90E04D
:104550008C179D0714F56F3FE1F0C216D306E406F1
:10456000F506B0F0CA01B901A40193010F94E31C50
:104570009B01AC012B0D311D411D511D2130F0E07F
:104580003F07F0E04F07F0E85F0710F461E001C07B
:104590006FEFF801A1908F01C5CF2114310481F094
:1045A000662331F001501040F1011183008308C0EF
:1045B00051FE1AC002501040F1011183008314C053
:1045C00067FF12C050FC05C02FEF3FEF4FEF5FE7D2
:1045D00004C020E030E040E050E882E290E09093B8
:1045E00089128093881216C050FE08C050954095DD
:1045F000309521953F4F4F4F5F4F0CC057FF0AC07A
:1046000082E290E090938912809388122FEF3FEF1F
:104610004FEF5FE7B901CA01DF91CF911F910F9171
:10462000FF90EF90DF90CF90BF90AF909F908F90D2
:104630007F906F905F903F902F900895FB01DC0179
:104640004150504088F08D9181341CF08B350CF432
:10465000805E659161341CF06B350CF4605E861BE6
:10466000611171F3990B0895881BFCCFFB01DC01EC
:1046700002C001900D9241505040D8F70895FB01BF
:10468000DC010D900020E9F7119701900D920020B8
:10469000E1F70895FC018191861721F08823D9F76D
:1046A000992708953197CF010895FB01DC018D9181
:1046B000019080190110D9F3990B0895FB01DC01D9
:1046C00001900D920020E1F70895FB01DC014150BB
:1046D000504048F001900D920020C9F701C01D9292
:1046E00041505040E0F70895FC0181E090E00190D6
:1046F000061609F4CF010020D1F701970895089517
:104700008F929F92AF92BF92CF92DF92EF92FF92E1
:104710000F931F93DF93CF93CDB7DEB7F601D5018B
:1047200060837183828393832D933D934D935C9338
:104730001397F401E082F18202831383CF91DF911A
:104740001F910F91FF90EF90DF90CF90BF90AF90AF
:104750009F908F9008958F929F92AF92BF92CF9229
:10476000DF92EF92FF920F931F93DF93CF93CDB71A
:10477000DEB7F601D50160837183828393832D9325
:104780003D934D935C931397F401E082F182028391
:104790001383CF91DF911F910F91FF90EF90DF90E6
:1047A000CF90BF90AF909F908F9008953F924F927F
:1047B0005F926F927F928F929F92AF92BF92CF92B1
:1047C000DF92EF92FF920F931F93DF93CF93CDB7BA
:1047D000DEB7E6970FB6F894DEBF0FBECDBF6C0113
:1047E0007EAB6DAB342EDC0114968D919D910D90B6
:1047F000BC91A02D898F9A8FAB8FBC8FF60140881A
:1048000051886288738884849584A684B784D6018D
:1048100018968D919D910D90BC91A02D8D8B9E8BA6
:10482000AF8BB88F698D7A8D8B8D9C8DA301920192
:104830000F940D1C7B018C01C501B4012D893E89AB
:104840004F89588D0F940D1C9B01AC01C801B70115
:104850000F9496186D8F7E8F8F8F98A3D6018D91B0
:104860009D910D90BC91A02D898B9A8BAB8BBC8BAD
:10487000D60190968D919D910D90BC91A02D8D8724
:104880009E87AF87B88BBC01CD012D893E894F89AA
:10489000588D0F940D1C7B018C01C301B201A30143
:1048A00092010F940D1C9B01AC01C801B7010F943C
:1048B000961869A37AA38BA39CA3C501B401A30195
:1048C00092010F940D1C7B018C016D857E858F8577
:1048D0009889298D3A8D4B8D5C8D0F940D1C9B0111
:1048E000AC01C801B7010F9496186DA37EA38FA3E6
:1048F00098A7C501B4012D8D3E8D4F8D58A10F9401
:104900000D1C7B018C0169897A898B899C8929A17D
:104910003AA14BA15CA10F940D1C9B01AC01C801F5
:10492000B7010F9497187B018C01698D7A8D8B8D5F
:104930009C8D2DA13EA14FA158A50F940D1C9B014C
:10494000AC01C801B7010F94971869A77AA78BA784
:104950009CA7D6015C968D919D910D90BC91A02D48
:1049600089879A87AB87BC87D60158968D919D9190
:104970000D90BC91A02D8D839E83AF83B887D60107
:1049800054968D919D910D90BC91A02D89839A8311
:10499000AB83BC836D8D7E8D8F8D98A129853A85E3
:1049A0004B855C850F940D1C7B018C016DA17EA154
:1049B0008FA198A52D813E814F8158850F940D1CA4
:1049C0009B01AC01C801B7010F9497187B018C01C2
:1049D00069817A818B819C8129A13AA14BA15CA13B
:1049E0000F940D1C9B01AC01C801B7010F949718DF
:1049F00029A53AA54BA55CA50F9464196DA77EA7C0
:104A00008FA798ABEDA9FEA96083718382839383FE
:104A1000C501B401298D3A8D4B8D5C8D0F940D1C11
:104A20007B018C0169897A898B899C89A301920118
:104A30000F940D1C9B01AC01C801B7010F9496188F
:104A400069AB7AAB8BAB9CAB29853A854B855C8592
:104A50000F940D1C2B013C016D857E858F859889F7
:104A600029893A894B895C890F940D1C7B018C0143
:104A7000C501B401A50194010F940D1C9B01AC016B
:104A8000C801B7010F9496182D813E814F8158853A
:104A90000F940D1C9B01AC01C301B2010F94971838
:104AA0007B018C0169817A818B819C812DA13EA142
:104AB0004FA158A50F940D1C9B01AC01C801B70173
:104AC0000F94971829A53AA54BA55CA50F946419D6
:104AD000ADA9BEA914966D937D938D939C93179762
:104AE00069897A898B899C892D893E894F89588D5E
:104AF0000F940D1C7B018C01698D7A8D8B8D9C8DA3
:104B00009B01AC010F940D1C9B01AC01C801B701C6
:104B10000F94961829853A854B855C850F940D1C5A
:104B20007B018C0169A97AA98BA99CA92D813E8161
:104B30004F8158850F940D1C9B01AC01C801B70132
:104B40000F9497187B018C0169817A818B819C81FC
:104B50002D8D3E8D4F8D58A10F940D1C9B01AC01E6
:104B6000C801B7010F94971829A53AA54BA55CA5D4
:104B70000F946419EDA9FEA96087718782879387D6
:104B8000332009F58DED91E04DA55EA56FA578A9BF
:104B900024E00E94C746ADA9BEA914964D915D912F
:104BA0006D917C91179787ED91E024E00E94C746B4
:104BB000EDA9FEA9408551856285738581ED91E05F
:104BC00024E00E94DA46E6960FB6F894DEBF0FBEE8
:104BD000CDBFCF91DF911F910F91FF90EF90DF90AC
:104BE000CF90BF90AF909F908F907F906F905F908D
:104BF0004F903F9008952F923F924F925F926F9205
:104C00007F928F929F92AF92BF92CF92DF92EF925C
:104C1000FF920F931F93DF93CF93CDB7DEB7C455A9
:104C2000D0400FB6F894DEBF0FBECDBF61966CAF1B
:104C30007DAF8EAF9FAF619765962CAF3DAF4EAF06
:104C40005FAF6597FE01319620E333E0F999FECF1F
:104C500032BD21BDF89A80B581932F5F3F4F83E02D
:104C60002433380799F789819A81AB81BC812D96CD
:104C70008CAF9DAFAEAFBFAF2D97FE01319624E351
:104C800033E0F999FECF32BD21BDF89A80B581930A
:104C90002F5F3F4F93E02833390799F789819A8135
:104CA000AB81BC8129968CAF9DAFAEAFBFAF2997CA
:104CB000FE0131962CE034E0F999FECF32BD21BDE2
:104CC000F89A80B581932F5F3F4F94E020313907E8
:104CD00099F789819A81AB81BC8125968CAF9DAF74
:104CE000AEAFBFAF2597FE01319628E333E0F999C7
:104CF000FECF32BD21BDF89A80B581932F5F3F4F23
:104D000093E02C33390799F789819A81AB81BC8173
:104D100021968CAF9DAFAEAFBFAF2197FE0131960C
:104D20002CE333E0F999FECF32BD21BDF89A80B56E
:104D300081932F5F3F4F93E02034390799F78981A2
:104D40009A81AB81BC8189AF9AAFABAFBCAFFE019A
:104D5000319620E134E0F999FECF32BD21BDF89AB9
:104D600080B581932F5F3F4F94E02431390799F745
:104D700089819A81AB81BC818DAB9EABAFABB8AF63
:104D8000FE01319620E433E0F999FECF32BD21BD1A
:104D9000F89A80B581932F5F3F4F93E02434390711
:104DA00099F769807A808B809C80FE01319624E49B
:104DB00033E0F999FECF32BD21BDF89A80B58193D9
:104DC0002F5F3F4FA3E028343A0799F729803A80B4
:104DD0004B805C80FE01319624E134E0F999FECFEE
:104DE00032BD21BDF89A80B581932F5F3F4FB4E06B
:104DF00028313B0799F7A980BA80CB80DC8080E01E
:104E000090E0A0E4B0E489AB9AABABABBCAB2D9621
:104E10006CAD7DAD8EAD9FAD2D979B01AC010F9418
:104E20000D1C20E030E040E050E00F9497187B012B
:104E30008C0121966CAD7DAD8EAD9FAD21979B0110
:104E4000AC010F940D1C9B01AC01C801B7010F947C
:104E500097187B018C01C401B301A40193010F9445
:104E60000D1C9B01AC01C801B7010F949718698B09
:104E70007A8B8B8B9C8B2D966CAD7DAD8EAD9FAD63
:104E80002D9729962CAD3DAD4EAD5FAD29970F9472
:104E90000D1C20E030E040E050E00F9497187B01BB
:104EA0008C0121966CAD7DAD8EAD9FAD219729AD66
:104EB0003AAD4BAD5CAD0F940D1C9B01AC01C8012C
:104EC000B7010F9497187B018C01C401B301A201B3
:104ED00091010F940D1C9B01AC01C801B7010F9407
:104EE00097186D8B7E8B8F8B988F29966CAD7DADCF
:104EF0008EAD9FAD29979B01AC010F940D1C20E056
:104F000030E040E050E00F9497187B018C0169ADD0
:104F10007AAD8BAD9CAD9B01AC010F940D1C9B0138
:104F2000AC01C801B7010F9497187B018C01C20135
:104F3000B101A20191010F940D1C9B01AC01C801AC
:104F4000B7010F949718698F7A8F8B8F9C8F2D964E
:104F50006CAD7DAD8EAD9FAD2D9720E030E040E093
:104F600050E00F94971821962CAD3DAD4EAD5FAD3E
:104F700021970F949718A40193010F9497186D8FA0
:104F80007E8F8F8F98A329966CAD7DAD8EAD9FAD32
:104F9000299720E030E040E050E00F94971829ADC9
:104FA0003AAD4BAD5CAD0F949718A20191010F94EF
:104FB000971869A37AA38BA39CA32D966CAD7DADA6
:104FC0008EAD9FAD2D9725962CAD3DAD4EAD5FAD11
:104FD00025970F940D1C20E030E040E050E00F9446
:104FE00097187B018C0121966CAD7DAD8EAD9FAD88
:104FF00021972DA93EA94FA958AD0F940D1C9B01D7
:10500000AC01C801B7010F9497187B018C01C40152
:10501000B301A60195010F940D1C9B01AC01C801C1
:10502000B7010F9497186DA37EA38FA398A7299615
:105030006CAD7DAD8EAD9FAD299725962CAD3DAD68
:105040004EAD5FAD25970F940D1C20E030E040E0A1
:1050500050E00F9497187B018C0169AD7AAD8BAD50
:105060009CAD2DA93EA94FA958AD0F940D1C9B01D5
:10507000AC01C801B7010F9497187B018C01C201E4
:10508000B101A60195010F940D1C9B01AC01C80153
:10509000B7010F94971869A77AA78BA79CA72596A5
:1050A0006CAD7DAD8EAD9FAD259720E030E040E04A
:1050B00050E00F9497182DA93EA94FA958AD0F9411
:1050C0009718A60195010F9497186DA77EA78FA733
:1050D00098ABCE014196BE016B5F7F4F41E066DB2E
:1050E00061966CAD7DAD8EAD9FAD61972D813E819A
:1050F0004F8158850F940D1C7B018C0165966CAD1A
:105100007DAD8EAD9FAD659729853A854B855C85D4
:105110000F940D1C9B01AC01C801B7010F949718A7
:105120002D853E854F8558890F949718CC5ADF4FAF
:105130000FB6F894DEBF0FBECDBFCF91DF911F91A8
:105140000F91FF90EF90DF90CF90BF90AF909F9026
:105150008F907F906F905F904F903F902F90089529
:105160004F925F926F927F928F929F92AF92BF9277
:10517000CF92DF92EF92FF920F931F93DF93CF9323
:10518000CDB7DEB768970FB6F894DEBF0FBECDBFC0
:105190004090DB0D5090DC0D6090DD0D7090DE0DC9
:1051A0008091DF0D9091E00DA091E10DB091E20DA5
:1051B00089879A87AB87BC878091E30D9091E40D36
:1051C000A091E50DB091E60D8D839E83AF83B887E6
:1051D0008AE49AE00E942D7D0091C0031091C103E2
:1051E0000115110509F464C0D80111966D917D91E6
:1051F0008D919C91149790958095709561957F4FB6
:105200008F4F9F4F0F94FF192091FC0C3091FD0C94
:105210004091FE0C5091FF0C0F940D1C6093DB0D20
:105220007093DC0D8093DD0D9093DE0DF8016581A8
:1052300076818781908590958095709561957F4F57
:105240008F4F9F4F0F94FF192091000D3091010D4A
:105250004091020D5091030D0F940D1C6093DF0DD2
:105260007093E00D8093E10D9093E20DD8011996B3
:105270006D917D918D919C911C97909580957095E5
:1052800061957F4F8F4F9F4F0F94FF192091040D11
:105290003091050D4091060D5091070D0F940D1C96
:1052A0006093E30D7093E40D8093E50D9093E60D0C
:1052B0004091DB0D5091DC0D6091DD0D7091DE0DA4
:1052C000E0903303F09034030091350310913603DE
:1052D0008090DF0D9090E00DA090E10DB090E20D78
:1052E0008091370390913803A0913903B0913A032C
:1052F0008D8B9E8BAF8BB88F8091E30D9091E40DD9
:10530000A091E50DB091E60D898B9A8BAB8BBC8B90
:1053100080913B0390913C03A0913D03B0913E03EB
:105320008D879E87AF87B88BFE01319628E433E0E6
:10533000F999FECF32BD21BDF89A80B581932F5FD8
:105340003F4F93E02C34390799F7ADB7BEB71797A5
:105350000FB6F894BEBF0FBEADBFCDB6DEB6089493
:10536000C11CD11CCB01BA01A30192010F94961864
:10537000A80197010F940D1C0F94CC192B013C012F
:10538000C501B40129853A854B855C850F94961833
:105390002D893E894F89588D0F940D1C0F94CC197F
:1053A0004B015C0169897A898B899C892D813E81B9
:1053B0004F8158850F9496182D853E854F855889C5
:1053C0000F940D1C0F94CC197B018C0189819A815B
:1053D000AB81BC81F60180839183A283B38381E09A
:1053E000848385838683C301B201A5019401AA2425
:1053F000BB2465010E9483A58DB79EB707960FB6A3
:10540000F8949EBF0FBE8DBF68960FB6F894DEBFAE
:105410000FBECDBFCF91DF911F910F91FF90EF9005
:10542000DF90CF90BF90AF909F908F907F906F90C4
:105430005F904F9008954F925F926F927F928F92FC
:105440009F92AF92BF92CF92DF92EF92FF920F9313
:105450001F93DF93CF93CDB7DEB72C970FB6F89499
:10546000DEBF0FBECDBF2091DB0D3091DC0D409132
:10547000DD0D5091DE0D29873A874B875C8720919F
:10548000DF0D3091E00D4091E10D5091E20D2D8343
:105490003E834F835887882321F089E49AE00E9455
:1054A0002D7DFE01319621EA33E0F999FECF32BD20
:1054B00021BDF89A80B581932F5F3F4F43E0253A95
:1054C000340799F7E980FA800B811C81FE0131963F
:1054D00028E233E0F999FECF32BD21BDF89A80B5BC
:1054E00081932F5F3F4F53E02C32350799F7698145
:1054F0007A818B819C8120E030E040E050E00F9485
:105500006B1B18162CF020E030E040E050E015C096
:10551000FE01319628E233E0F999FECF32BD21BD7C
:10552000F89A80B581932F5F3F4F83E02C32380784
:1055300099F729813A814B815C81C801B7010F94A9
:1055400097182DEC3CEC4CEC5DE30F9497187B0125
:105550008C0160914A0D70914B0D80914C0D909192
:105560004D0DA80197010F946B1B1816F4F400D091
:105570000F9280915B0390915C03A0915D03B091C9
:105580005E03EDB7FEB781839283A383B48360EF9C
:1055900073E284E799E49B01AC015B016C010E941A
:1055A0003DBE0F900F900F900F90FE01319620E2BC
:1055B00033E0F999FECF32BD21BDF89A80B58193D1
:1055C0002F5F3F4F43E02432340799F789819A8156
:1055D000AB81BC81AC01BD0170584093DB0D509391
:1055E000DC0D6093DD0D7093DE0DFE01319624E23B
:1055F00033E0F999FECF32BD21BDF89A80B5819391
:105600002F5F3F4F83E02832380799F789819A81CD
:10561000AB81BC814C015D01B7FAB094B7F8B0948E
:105620008092DF0D9092E00DA092E10DB092E20D1C
:1056300080E090E0A0E0B0E08093E30D9093E40D73
:10564000A093E50DB093E60DC0903303D0903403E2
:10565000E0903503F09036034090370350903803C4
:105660006090390370903A03FE01319628E433E0EC
:10567000F999FECF32BD21BDF89A80B581932F5F95
:105680003F4F93E02C34390799F7EDB7FEB73797C2
:105690000FB6F894FEBF0FBEEDBF0DB71EB70F5F7C
:1056A0001F4FCB01BA0129853A854B855C850F9444
:1056B0009618A70196010F940D1C0F94CC196B013D
:1056C0007C01C501B4012D813E814F8158850F9425
:1056D0009618A30192010F940D1C0F94CC199B01F5
:1056E000AC0189819A81AB81BC81F801808391836F
:1056F000A283B38381E0848385838683C701B60157
:10570000EE24FF248701AA24BB2465010E9483A5FF
:105710002DB73EB7295F3F4F0FB6F8943EBF0FBE7F
:105720002DBF2C960FB6F894DEBF0FBECDBFCF9124
:10573000DF911F910F91FF90EF90DF90CF90BF907E
:10574000AF909F908F907F906F905F904F90089553
:105750002F923F924F925F926F927F928F929F9281
:10576000AF92BF92CF92DF92EF92FF920F931F936F
:10577000DF93CF93CDB7DEB766970FB6F894DEBF51
:105780000FBECDBF6F87488B882311F0822F53DE69
:105790000E941B3560913B0370913C0380913D0357
:1057A00090913E0320E030E040EC5FE30F940D1C4D
:1057B0000F94CC19698B7A8B8B8B9C8B80913A0DD3
:1057C00090913B0DA0913C0DB0913D0D8F8398873A
:1057D000A987BA870E946AAC0E946AAC8091120EB7
:1057E00087FD0BC02224332421011E821D82B8892B
:1057F000AB2FB0E0BE8BAD8BFBC08AE892E074C0EB
:105800004091A30D5091A40D6091A50D7091A60D2E
:10581000E090AF0DF090B00D0091B10D1091B20D70
:105820008FEF9FEFAFEFBFEF80938F0D9093900DB1
:10583000A093910DB093920D8091760D806480932A
:10584000760DFE0131962CE233E0F999FECF32BDA0
:1058500021BDF89A80B581932F5F3F4F93E02033AD
:10586000390799F7ADB7BEB717970FB6F894BEBF13
:105870000FBEADBFEDB7FEB73196E41AF50A060BC1
:10588000170BEE0CFF1C001F111F29813A814B8161
:105890005C8111962D933D934D935C931497B1E0E9
:1058A000B483B583B68360E070E080E090E020E0F0
:1058B00030E040E050E0AA24BB2465010E9483A5AB
:1058C00020918F0D3091900D4091910D5091920D3E
:1058D0008DB79EB707960FB6F8949EBF0FBE8DBFCB
:1058E00057FF0BC080EB9AE00E94D64566247724D0
:1058F0009EE5892E84EC982E11C28091760D8F7BC7
:105900008093760D60903A0D70903B0D80903C0D29
:1059100090903D0D620E731E841E951E60923A0D8E
:1059200070923B0D80923C0D90923D0DAD81BE81F9
:105930001196BE83AD832D893E89A217B3070CF063
:105940004BC0FE0131962CE233E0F999FECF32BD17
:1059500021BDF89A80B581932F5F3F4F83E02033BC
:10596000380799F7ADB7BEB717970FB6F894BEBF13
:105970000FBEADBFEDB7FEB7319629813A814B819D
:105980005C8111962D933D934D935C931497B1E0F8
:10599000B483B583B68360E070E080E090E020E0FF
:1059A00030E040E050E0E988FA880B891C89AA249D
:1059B000BB2465010E9483A52DB73EB7295F3F4FE9
:1059C0000FB6F8943EBF0FBE2DBF8091120E87FF19
:1059D00003C08FE292E088CF8F819885A985BA8530
:1059E00086199709A809B909280E391E4A1E5B1E97
:1059F0008D819E81AD89BE898A179B070CF400CFEB
:105A0000E090040DF090050D0091060D1091070D2A
:105A1000FE01319628E233E0F999FECF32BD21BD77
:105A2000F89A80B581932F5F3F4FB3E02C323B074C
:105A300099F7C201B1010F94FF19A80197010F94C2
:105A40000D1C7B018C012889622F70E080E090E0C2
:105A50000F94FD199B01AC01C801B7010F946419A3
:105A600029813A814B815C810F9497181B012C018D
:105A700080912D0E882359F40F2EF0E0EF2EF0E0E8
:105A8000FF2EF0E00F2FF0E01F2FF02D97C0409178
:105A9000320D5091330D6091340D7091350DFE0132
:105AA000319620E233E0F999FECF32BD21BDF89A5C
:105AB00080B581932F5F3F4F83E02432380799F7F9
:105AC000A980BA80CB80DC8060903303709034036F
:105AD00080903503909036038091360D9091370D6C
